:020000040800F2
:1000000090170020E1010008E9010008EB01000859
:10001000ED010008EF010008F101000800000000F8
:10002000000000000000000000000000F3010008D4
:10003000F501000800000000F7010008DB380008A7
:10004000FB010008FB010008FB010008FB010008A0
:10005000FB010008FB010008FB010008FB01000890
:10006000FB010008FB010008FB010008FB01000880
:10007000FB010008FB010008FB010008FB01000870
:10008000FB010008FB010008FB010008FB01000860
:100090005B7E0008FB010008FB010008FB01000873
:1000A000FB010008FB010008FB010008FB01000840
:1000B000FB010008FB010008FB010008FB01000830
:1000C000FB010008FB010008FB010008FB01000820
:1000D000FB01000887140008FB0100084B490008D9
:1000E000FB010008FB010008637E000800F002F835
:1000F00000F05EF80AA090E8000C82448344AAF164
:100100000107DA4501D100F053F8AFF2090EBAE861
:100110000F0013F0010F18BFFB1A43F0010318473B
:1001200050A3000070A300000A444FF0000C10F828
:10013000013B13F0070408BF10F8014B1D1108BF65
:1001400010F8015B641E05D010F8016B641E01F805
:10015000016BF9D113F0080F1EBF10F8014BAD1C55
:100160000C1B09D16D1E58BF01F801CBFAD505E073
:1001700014F8016B01F8016B6D1EF9D59142D6D3CD
:10018000704700000023002400250026103A28BFF5
:1001900078C1FBD8520728BF30C148BF0B607047F9
:1001A0001FB59DE8030009F0D9FB1FBD10B510BDB8
:1001B00009F030FC1146FFF7F3FF01F03DF809F0BC
:1001C0004EFC03B4FFF7F2FF03BC09F07FFC000014
:1001D000EFF3108072B6704780F31088704700000C
:1001E0000948804709480047FEE7FEE7FEE7FEE7CB
:1001F000FEE7FEE7FEE7FEE7FEE7FEE70448054907
:10020000054A064B70470000FF020008ED00000899
:1002100090110020901700209013002090130020D0
:100220000CB50020019000906D48006840F48030CB
:100230006B49086000BF6A48006800F40030009015
:100240000198401C0190009818B90198B0F5A06F72
:10025000F1D16348006800F4003010B10120009033
:1002600001E0002000900098012843D15D4800681B
:1002700040F010005B4908600846006820F0030069
:1002800008600846006840F0020008605448406872
:10029000534948600846406848600846406840F452
:1002A000806048600846406820F47C10486008463A
:1002B000406840F4E81048600846006840F08070EC
:1002C000086000BF4648006800F000700028F9D0C0
:1002D0004348406820F003004149486008464068B0
:1002E00040F00200486000BF3D48406800F00C004C
:1002F0000828F9D10CBD10B5FFF792FF10BD10B55D
:100300003748006840F001003549086008464068F9
:10031000354908403249486008460068334908407A
:100320002F4908600846006820F4802008600846CD
:10033000406820F4FE0048604FF41F008860FFF71B
:10034000DAFF4FF000602A4908602A48091D08605A
:1003500010BD10B5002100200022214B5B6803F086
:100360000C0121B1042906D0082928D107E0224B2D
:10037000224C236027E0204B204C236023E0184BC5
:100380005B6803F47010164B5B6803F48032022341
:1003900003EB904022B91A4B4343184C23600DE005
:1003A0000F4B5B6803F4003323B1154B4343134CED
:1003B000236003E0104B4343104C236003E00E4BDB
:1003C0000E4C236000BF00BF054B5B68C3F30313F3
:1003D0000C4CE15C094B1B68CB40084C236010BD02
:1003E00000100240002002400000FFF8FFFFF6FE70
:1003F00008ED00E00003FA0500127A00000000207A
:1004000000093D000400002038B500208DF80300ED
:1004100000240BE0FC4830F81400ADF80000FB4964
:1004200051F82400694605F07BFC641C052CF1D3CF
:1004300038BD10B590B00BA804F09EFD684605F0DD
:1004400039F84FF4004005F0F1FE0121084605F0AF
:100450007CFF0121480205F085FFED4804F06AFFAA
:10046000EC480090EC48019000200290502003904E
:1004700000200490802005904000069080000790A6
:10048000202008900002099000200A906946E04868
:1004900004F0F2FF0121DE4805F019F800200B906E
:1004A00001208DF830008DF831004FF460200D9060
:1004B00000200E9005208DF83C000BA9D5484C3843
:1004C00004F037FD002409E0601CC2B2D348015D8E
:1004D0000323D0484C3804F0C4FD641C052CF3D32E
:1004E0000121CC484C3804F05BFD0121C9484C384F
:1004F00004F04BFDC7484C3804F069FD00BFC54807
:100500004C3804F069FD0028F9D1C2484C3804F099
:100510006DFD00BFBF484C3804F06DFD0028F9D1D7
:100520000121BC484C3804F070FD10B010BD10B56E
:10053000FFF76AFFFFF77DFF0E21B94809F0A6F922
:10054000B8480021016010BD10B501460022052009
:1005500091FBF0F400FB1410C1B20B4604E0AE486E
:1005600030F8130002445B1D502BF8D3120990B2EF
:1005700010BD2DE9F0410446AB48007800287AD040
:10058000A71C00260020207000253FE0E8B2FFF7FE
:10059000DBFF0646B6F5186F18DBB6F5686F03DBB0
:1005A0007F2027F8150006E0A6F518600A2190FBC9
:1005B000F1F027F8150025B9207840F002002070EE
:1005C00023E0207840F0040020701EE0B6F5D06FE4
:1005D00018DCB6F5C07F03DC7F2027F8150006E0A5
:1005E000C6F5D0600A2190FBF1F027F8150025B977
:1005F000207840F00100207007E0207840F00800EB
:10060000207002E0002027F815006D1C022DBDD3DC
:10061000608840106080A0884010A080207850B989
:10062000607830B10E21204609F030F90120BDE894
:10063000F0810020FBE760782178884217D121788B
:10064000002001F0030232B1628823899A4202D06D
:1006500001206288228101F00C0232B1A2886389F4
:100660009A4202D00120A2886281E0E703E020786C
:1006700060700120DBE7A71C002600202070002509
:1006800052E0E8B2FFF760FF064640F23370864260
:1006900021DC40F2B450864203DC7F2027F81500AD
:1006A00007E040F23370801B032190FBF1F027F844
:1006B000150025B9207840F00100207033E0012DAD
:1006C00004D1207840F0080020702CE0207840F021
:1006D0002000207027E040F6A900864220DB40F68B
:1006E0002820864203DB7F2027F8150006E0A6F6C7
:1006F000A900032190FBF1F027F8150025B9207817
:1007000040F0020020700EE0012D04D1207840F06E
:100710000400207007E0207840F01000207002E014
:10072000002027F815006D1C032DAAD36088401007
:100730006080A0884010A080E088C010E080207811
:1007400048B9607828B10E21204609F09FF80120B1
:100750006DE700206BE760782178884220D121780E
:10076000002001F0030232B1628823899A4202D04C
:1007700001206288228101F00C0232B1A2886389D3
:100780009A4202D00120A288628101F0300232B187
:10079000E288A3899A4202D00120E288A28146E73A
:1007A00020786070012042E71E48007870472DE9EC
:1007B000F04105460320FFF7C7FE04466F781B484B
:1007C0000088844201DB00240FE01948008884423D
:1007D00007DC1848008800EB0010C0EBC00084B2B2
:1007E00003E012480088001B84B26E88A64224DD14
:1007F000301B81B20F4A108800EBD072B1EB620F50
:100800001ADA0020BDE8F081189B00082C000020B7
:10081000080002404C2401408C020020229B00086A
:100820002C03002022000020150000201A000020C8
:1008300018000020160000200CE0A01B81B2DB4A4B
:10084000108800EBD072B1EB620F02DA0020BDE835
:10085000F08100BF2646D548008894FBF0F084B2B2
:10086000A74208D0E0B268702870D0480088604382
:1008700068800120EBE70020E9E700B58BB0CC48A9
:10088000FFF777FE58B102208DF804000E22C84908
:1008900003A808F07CFF01A800F0ACFC00BF0BB07F
:1008A00000BD00B58BB0C348FFF781FF48B1002001
:1008B0008DF80400BF480078039001A800F09AFC6E
:1008C00000BF0BB000BD2DE9F04105460420FFF745
:1008D0003BFE04466F780026B7480088844201DA60
:1008E000002403E0B4480088201A84B2B34800888A
:1008F000B1490988401AA04205DAB0480088AE49DB
:100900000988401A84B26E88A6420DDD301B81B280
:10091000AB4A1088C21700EB9272B1EBA20F02DA59
:100920000020BDE8F0810CE0A01B81B2A44A108831
:10093000C21700EB9272B1EBA20F01DA0020F0E7D0
:1009400000BF26469E48008894FBF0F084B2642CD9
:1009500000DD6424BC4205D0E0B2287068706E806F
:100960000120DEE70020DCE796484078704700B5BC
:100970008BB09448FFF7A7FF48B103208DF804001F
:1009800090480078039001A800F034FC00BF0BB041
:1009900000BD70B502460B460024002100259A4296
:1009A00001DD002070BD981A84B2F02C01DA00201D
:1009B000F8E7782094FBF0F081B2C1EB0110A4EBD2
:1009C000C00085B23B2D06DA481E81B2C1EB011092
:1009D000A4EBC00085B2284605EBD076C6F34F05E0
:1009E000501982B2C1EB011002EBC000401E83B26D
:1009F0006E48018074480280744803800120D1E76A
:100A00002DE9F84F06464FF00008C246002000903E
:100A10000EB9BDE8F88F34680CB90020F9E72078EA
:100A2000012801D00020F4E704F1080999F800003A
:100A3000312801D00020ECE7002000F04BFB012220
:100A40000921062000F0DEFA00BF00F0C6FB0646D2
:100A500006B903E0304600F0C6FBF6E700BF5C488D
:100A6000076865E05A480168384602F02DFF42F2F7
:100A70001071884204D9012000F02CFB0020C8E747
:100A800000F0ABFB064606B952E0346824B93046A4
:100A900000F0A9FB00264BE02078012804D0304666
:100AA00000F0A1FB002643E004F10805B8F1000FB7
:100AB0001CD128782A2837D145480768A878022809
:100AC00005D101220621042000F09CFA2CE0A87830
:100AD000012829D100220621042000F093FA0320E6
:100AE000FFF732FD00904FF001081DE0B8F1010F53
:100AF0001AD12878292817D135480768A8780228FC
:100B000005D101220721042000F07CFA0CE0A8782E
:100B1000012809D100220721042000F073FA0320E4
:100B2000FFF712FD824604E0304600F05CFB00BF98
:100B300098E700BF50460099FFF72BFFB8B103F0CC
:100B4000F6FCA0B100220921062000F05BFA204843
:100B5000076800BF1E480168384602F0B5FEB0F5D0
:100B60007A7FF7D3012000F0B5FA012051E7012583
:100B70004FF0000B12E085F001052A4609210620FE
:100B800000F040FA1248076800BF11480168384673
:100B900002F09AFE6428F8D30BF1010BBBF10A0FA7
:100BA000E9D3012000F096FA012032E71600002078
:100BB0002C03002022000020200000201E00002026
:100BC0001C00002026000020180000201A00002031
:100BD0002C010020F0B5024692F8A04004F0070670
:100BE000002009E0FA4C215CFA4C34F81140FA4D2F
:100BF00055F821502C61401C1028F3D300233AE013
:100C0000F34FF95CF34F37F81170DFF8CCC35CF8A1
:100C100021C0CCF81470002000E0401C2828FCD330
:100C200000BF00BF00BF0024002013E0EB4F57F8C7
:100C30002070BF68DFF8A8C33CF810C007EA0C05B5
:100C40000DB1012700E000273D4605FA00F72743D4
:100C5000BCB2401C0828E9D3DE4F37F81170DFF82A
:100C600078C35CF821C0CCF8107002F1200707EBC4
:100C70000617FC545B1C102BC2D3D2F8A040641C96
:100C8000C2F8A040F0BD2DE9F04706460F464FF0F0
:100C9000FF094FF00008002415E000250CE006EBEA
:100CA0000410415D601C06EB0010405D814202D0E3
:100CB00008F1010802E06D1C102DF0DB00BF102DC3
:100CC00000D1A146641C072CE7DBB8F1050F02DD5B
:100CD0000020BDE8F087B9F1080F01DB0020F8E73C
:100CE00006EB09111022384608F051FD0120F0E70B
:100CF0002DE9F05F804698F8A00000F00700072873
:100D00007CD1414608F12000FFF7BDFF8346BBF1CF
:100D1000000F02D10020BDE8F09FC14608F1100A83
:100D200008F1A407002400255DE00020002119F847
:100D300005201AF8053082EA030019F805201AF890
:100D4000053002EA030158B3002627E00122B24031
:100D5000024012B3082C00DB48E0F02202EA051240
:100D600006F00F031A4307EB84035A709D4A02EB07
:100D7000C502925D07F8242019F805300122B2401F
:100D8000134023B1022207EB84039A7003E001228F
:100D900007EB84039A70621CD4B2761C082ED5DB54
:100DA00001B300261CE00122B2400A40BAB1082C6F
:100DB00000DB1BE0F02202EA051206F00F031A43E3
:100DC00007EB84035A70874A02EBC502925D07F86D
:100DD0002420EE2207EB84039A70621CD4B2761CA6
:100DE000082EE0DB6D1C102D9FDB00BF1022494652
:100DF000504608F0CCFC20468DE7FFE700208AE74C
:100E000038B503208DF8020010208DF8030000246F
:100E100012E0734830F81400ADF800006F4951F843
:100E20002400694604F07CFF6D4830F814006B49DB
:100E300051F824104861641C082CEAD300BF282014
:100E40008DF8030000240BE0654830F81400ADF87D
:100E50000000624951F82400694604F061FF641CF7
:100E6000082CF1D300BF38BD38B503208DF802003F
:100E700010208DF8030000240BE05B4830F81400CC
:100E8000ADF80000594951F82400694604F048FFC4
:100E9000641C102CF1D338BD38B503208DF8020046
:100EA00010208DF8030000240BE04A4830F81400AD
:100EB000ADF80000484951F82400694604F030FFBD
:100EC000641C102CF1D300240BE0424830F81400CD
:100ED000ADF80000404951F82400694604F020FFB5
:100EE000641C102CF1D338BD002007E03E4931F8D6
:100EF00010103E4A52F820205161401C1028F5D3B2
:100F00007047002007E0334931F81010324A52F898
:100F100020201161401C1028F5D37047002007E005
:100F20002C4931F810102C4A52F820201161401C35
:100F30001028F5D3704710B5FFF7F0FFFFF7E1FF7A
:100F400010BD2DE9F041054695F8200000F00F0690
:100F500035F81670FFF7C8FFFFF7D3FF00240BE04A
:100F60000120A040384030B11F4830F814001F491C
:100F700051F824100861641C102CF1D3154830F886
:100F80001600154951F826104861701C2862BDE80A
:100F9000F08110B5FFF734FFFFF766FFFFF77CFF26
:100FA000FFF7C9FFC421124808F092FC2421114820
:100FB00008F08EFC2021104808F068FC20210F4822
:100FC00008F064FC20210E4808F060FC10BD000011
:100FD000189C0008989B0008589B0008289B000854
:100FE000489B000845000020F89B0008B89B0008BB
:100FF0003C030020000400202404002044040020BE
:101000006404002030B50B4600F00F0003F00F031E
:10101000584C04EB43012AB10C88012585402C4330
:101020000C8004E00C8801258540AC430C8030BD69
:10103000024602F00F0201F00F014E4830F8113065
:1010400001209040184008B1012070470020FCE7C3
:1010500030B50B4600F00F0003F00F03464C04EBD5
:1010600043012AB10C88012585402C430C8004E003
:101070000C8801258540AC430C8030BD10B53F483D
:1010800001683F48006802F01FFCB0F5FA7F20D9E4
:10109000002111E0374B03EB4100374B33F81120AF
:1010A0004AB1384B1B781BB103881343038002E01D
:1010B000038893430380491C1029EBD32F4B1B68F3
:1010C0002F4C23602F4B1B7883F001032D4C237092
:1010D00000BF10BD70B50446002504B1FF252021D6
:1010E000254808F0D3FB2A462021224808F0C6FBF9
:1010F00070BD10B520222049234808F048FB20226B
:101100001C49224808F043FB10BD10B520221E499F
:10111000194808F03CFB20221C49164808F037FB10
:1011200010BD10B58AB01548007800F00100D0B9A4
:101130000024FFF7D9FE1648FFF74CFD1448FFF7CF
:10114000D7FD0446002C0DDD019401208DF8000030
:10115000A2000F49A43102A808F05EFB684600F027
:1011600049F800BF00BFFFF789FF0248FFF7E9FE1B
:101170000AB010BD00040020240400202C0100202F
:1011800040000020440000206404002044040020AB
:101190003C03002010B5032308222449244802F010
:1011A0007FFD002416E0002004EB44011F4A02EBFF
:1011B000C101087204EB84001E4901EBC00004EB7E
:1011C000440142F83100282004EB440102EBC10144
:1011D0004860641C082CE6D310BD10B501211448EA
:1011E00002F0E1FD10BD10B504462146104802F0A2
:1011F00011FE10BD70B50446002504B970BD0C4841
:1012000002F08EFD054675B128222146286808F0B7
:10121000BEFA01222946064802F099FD18B1294676
:10122000034802F0F7FD00BFE8E70000C405002016
:1012300084060020840400200EB50025FFF7AAFFD5
:1012400001F0ABF802F078FB02F080FB03F00BF941
:1012500000F02BF903F08BFBFFF79BFE0020FFF75C
:1012600039FFFFF764F903F04DFA02F075FB01F066
:10127000A5F803F089FC0120FFF72CFF5448D0F8B3
:1012800000802CE0FFF7A9FF0446D4B1204601F00E
:10129000B0F818B14E48D0F8008012E02046FFF7B1
:1012A000AFFB18B14A48D0F800800AE0204601F0B0
:1012B00095F918B14648D0F8008002E02046FFF7C3
:1012C00092FF0120FFF706FF41480168404602F007
:1012D000FBFA41F28831884200D901E000BFD1E732
:1012E00000BF0120FFF7F6FE00252AE000240026BB
:1012F0003748D0F800806C46002020606060208174
:10130000AA2020700720A070C020E070204600F0C6
:1013100027FE0821204600F0D1FE002000F0DAF878
:1013200006461EB1304600F076F90CE06D1C00BF99
:1013300027480168404602F0C7FAB0F57A7FF7D334
:1013400000BF032DD2D300BF0020FFF7C3FE01F082
:1013500024F8012002F06FFA00BFFFF73EFF0446B9
:1013600004B903E02046FFF73EFFF6E700BF2EE09A
:10137000002000F0AFF80446FFF72FFF06460020DC
:1013800003F009FB8146002003F075FC074616B107
:10139000304601F074FF3CB10E49204600F097FE44
:1013A00010B1204602F02EFA17B1384602F02AFAA0
:1013B0003046FFF718FF204600F02DF9484603F0AD
:1013C0008BFB384603F0F8FC01F01AFF00BFCFE7B3
:1013D0002C010020CC9C000800B587B001218803B7
:1013E00004F0C0FF03A805F0DBFF4FF41650039094
:1013F00003A9AA4805F06BFF0121A84805F0F3FFF7
:101400004FF40070ADF8080003208DF80A00182092
:101410008DF80B0002A9A24804F082FC4FF4806012
:10142000ADF8080004208DF80B0002A99C4804F0D8
:1014300077FC25208DF8040004208DF8050000209D
:101440008DF8060001208DF8070001A803F0E1FCEB
:10145000012240F22551914805F0D1FF01210846B3
:1014600004F073FF43F290008E4948648B48001DDE
:10147000C86400208864086501228021874805F03F
:10148000E3FF07B000BD38B58448048804F02000AD
:1014900050B18248001D0088C0B200900122694608
:1014A000814802F0E9FC00BF38BD10B500231022CE
:1014B0007E497F4802F0F4FB80227E497A4802F0A0
:1014C000BDFC4FF480627C497C4800F0FDF8FFF7DA
:1014D00083FF10BDF0B585B0054600BF0027002092
:1014E000049004A9704802F00FFD074607B92BE0ED
:1014F00027E00026002003900290002402A903ABFD
:10150000CDE9001039466D48049A00F0EFF8064620
:1015100006B917E0664802F003FC044614B93046E9
:1015200008F0C3F8266003986060012020720298DA
:10153000A072012221465E4802F009FC00200490BE
:1015400000BFD6E700BF00BF00BF00BF00245C485B
:101550000078E8B15348006800F4005010B905B1B4
:1015600049E049E04D48008800F0400010B905B15D
:1015700041E041E04FF480504A4948605148007AC8
:1015800018B15049086808F090F800204C490870DC
:101590000021474802F007FC04465CB3606800285D
:1015A00001DD206848B9207A20B1206810B1206898
:1015B00008F07BF805B11EE01EE03A48406C20F0D0
:1015C00001003849486460688864206808650846F6
:1015D000406C40F00100486401203949087018222D
:1015E0002146384808F018F92146314802F012FC2B
:1015F00005B100E000E0A9E700BF00BF0024012121
:101600002B4802F0D0FB044614B1204605B0F0BDD3
:1016100000BF0020FAE710B5044644B1207A10B1AB
:10162000206808F042F82146214802F0F3FB10BD83
:101630002DE9F04105460E4690461F46002415B997
:10164000601EBDE8F0811A4802F06AFB044614B936
:101650004FF0FF30F5E725606760267200222146D3
:10166000134802F074FB0020EBE710B504461CB1F0
:1016700021460F4802F0CEFB10BD4FF4806070474A
:1016800010B5044604B910BD0020A0810C20608173
:101690002146024805F01BFE00BFF4E70038014078
:1016A0000008014000000240AC080020980600201D
:1016B000180800202C080020C4080020C40C0020BA
:1016C000C5000020DC0C002070B504460E4615460F
:1016D0000CB106B115B94FF0FF3070BD182120468E
:1016E00008F0F6F8266065600020F6E72DE9FF4F68
:1016F0008DB0044691469A46DDF8688000270020A8
:101700000C9014B1BAF1000F03D14FF0FF300C90E0
:1017100023E221696068401A484502D24FF0FF3049
:101720000C90B9F1000F2ED00E9818B94FF0FF3081
:101730000C90EDE7A06800EB09066068B04214D297
:10174000D4E90101451AA268216888182A460E9931
:1017500008F01DF8A9EB05020E9B5919206808F046
:1017600016F8A9EB0500A06009E0A26821688818B6
:101770004A460E9908F00BF8A0684844A06020691A
:101780004844206100BF00BF00200B900025BDE34E
:10179000E06828440A9061680A98B0FBF1F201FB06
:1017A00012000A9021680A98085C09900998AA28F2
:1017B0007DD10026002008902069401B07900798E3
:1017C000072806DB606928B1A08AC0F30726207DC0
:1017D000089085E0E26850192168821C6368B2FBBA
:1017E000F3FC03FB1C228A5C042A78D1C21C6368C8
:1017F000B2FBF3FC03FB1C228A5C002A6FD1421D62
:101800006368B2FBF3FC03FB1C228E5C821D6368E1
:10181000B2FBF3FC03FB1C228A5C0892079A082A9D
:101820005DDBD4F80CC0AC44CDF818C005F1070C52
:10183000D4F80CB00CEB0B034FF0000CCDF814C037
:10184000069A10E0D4F804C0B2FBFCFB0CFB1B2C86
:10185000D4F800B01BF80CC0DDF814B08CEA0B0C07
:10186000CDF814C0521C9A42ECD3D4F804C0B3FB98
:10187000FCFB0CFB1B3CD4F800B01BF80CC0CDF8F3
:1018800010C0DDE904CBE3451BD005F1010CD4F811
:1018900010B0ABEB0C0CC4F810C005F1010CD4F87F
:1018A0000CB0DC44C4F80CC0D4F80CC000E03FE13C
:1018B000D4F804B0BCFBFBFE0BFB1ECCC4F80CC080
:1018C00028E3F6B2DDF820C00CF0FF0CCDF820C004
:1018D000DDF820C00CEB062CC4F814C000BF00BF1C
:1018E000F6B20898C0B20890089800EB06260836B1
:1018F0006068B6EB500F11D9681C2169081A206185
:10190000681CE1680844E0606168E068B0FBF1F2DF
:1019100001FB1200E0600020606108E10798864248
:1019200075DC082E75D1002006900196019807F00D
:101930008DFE07461FB94FF0FF300C9007E3059767
:10194000E06828440390701E2844E168084402902F
:101950000398049015E061680498B0FBF1F201FB74
:101960001200216811F800B0069880EA0B0006907A
:10197000059880F800B00598401C05900498401C1C
:101980000490029904988842E5D361680298B0FBFC
:10199000F1F201FB1200216811F800B006985845D9
:1019A0001FD101200B90059880F800B021690198A3
:1019B0002844081A2061E068411901980844E06051
:1019C0006168E068B0FBF1F201FB1200E060019891
:1019D000CAF80000B8F1000F18D00120C8F80000C4
:1019E00014E0384607F061FE0027681C2169081AD8
:1019F0002061681CE1680844E0606168E068B0FB51
:101A0000F1F201FB1200E060002060618FE07FE0F6
:101A1000FFE70596059807F019FE07461FB94FF036
:101A2000FF300C9093E2E06828446168B0FBF1F26B
:101A300001FB120B7019E16808446168B0FBF1F218
:101A400001FB120006900698584507D9206800EB64
:101A50000B013246384607F09AFE11E06068A0EBB1
:101A60000B000290206800EB0B013846029A07F049
:101A70008EFE029BF21AF818216807F088FE00BF5C
:101A800000206061A6F10A0081B207F1080002F0AF
:101A900023F8049000200390B819811E022203A8A5
:101AA00001F0F6FFBDF80C10049881421CD1012012
:101AB0000B90216905982844081A2061E0684119B3
:101AC00005980844E0606168E068B0FBF1F201FB52
:101AD0001200E0600598CAF80000B8F1000F16D0B7
:101AE0000120C8F8000012E0384607F0DEFD0027AC
:101AF000681C2169081A2061681CE1680844E060DC
:101B00006168E068B0FBF1F201FB1200E0600EE0FA
:101B10002069401B2061E0682844E0606168E0685B
:101B2000B0FBF1F201FB1200E06001200B90F1E14B
:101B30000998FA2870D12069A0EB050BBBF1070FBB
:101B40006BDB0020089007200390039807F07EFDD0
:101B500007461FB94FF0FF300C90F8E13E46E068B1
:101B600028440590A81DE168084404900598069053
:101B70000FE060680699B1FBF0F200FB12102168DB
:101B8000085C07909DF81C0006F8010B0698401CA5
:101B90000690049906988842EBD30220069009E04B
:101BA0000698385C9DF820100844C0B2089006984A
:101BB000401C069006980628F2D360680499B1FB91
:101BC000F0F200FB12102168085C07909DF82000DD
:101BD0009DF81C10884221D101200B909DF81C001B
:101BE0003070206903992944401A2061E068284434
:101BF00003990844E0606168E068B0FBF1F201FB22
:101C00001200E0600398CAF80000B8F1000F18D085
:101C10000520C8F8000014E024E013E0384607F07F
:101C200044FD0027681C2169081A2061681CE168CE
:101C30000844E0606168E068B0FBF1F201FB12006B
:101C4000E0600EE02069401B2061E0682844E0600D
:101C50006168E068B0FBF1F201FB1200E060012076
:101C60000B9057E1099800F0F000802879D12069A5
:101C7000401B08900898032874DBE068284407900C
:101C8000D4E9031000EB010B002006900798861C96
:101C90000DE06068B6FBF0F100FB11602168085CA4
:101CA00006900698FF2801D1B34602E0761C5E45F7
:101CB000EFD300BF0698FF2855D10798ABEB000083
:101CC000401C102810D90027681C2169081A2061BF
:101CD000681CE1680844E0606168E068B0FBF1F20C
:101CE00001FB1200E06063E00798ABEB0000401CD2
:101CF0000490049807F0AAFC07461FB94FF0FF3084
:101D00000C9024E1059701200B90079E0CE0606881
:101D1000B6FBF0F100FB11612068415C0598017091
:101D20000598401C0590761C5E45F0D92169049801
:101D30002844081A2061E068411904980844E060CA
:101D40006168E068B0FBF1F201FB1200E06004980A
:101D5000CAF80000B8F1000F02D00420C8F8000053
:101D600026E036E025E00798ABEB0000102810D302
:101D70000027681C2169081A2061681CE168084472
:101D8000E0606168E068B0FBF1F201FB1200E06026
:101D90000EE02069401B2061E0682844E060616833
:101DA000E068B0FBF1F201FB1200E06001200B9053
:101DB0000EE02069401B2061E0682844E060616813
:101DC000E068B0FBF1F201FB1200E06001200B9033
:101DD000A0E00998A52871D12069A0EB050BBBF103
:101DE0000B0F6CDB002008900B200390039807F08A
:101DF0002DFC07461FB94FF0FF300C90A7E03E4680
:101E0000E0682844059005F10A00E1680844049060
:101E1000059806900FE060680699B1FBF0F200FBB0
:101E200012112068405C07909DF81C0006F8010B19
:101E30000698401C0690049906988842EBD301202E
:101E4000069009E00698385C9DF820100844C0B25E
:101E500008900698401C069006980A28F2D36068FD
:101E60000499B1FBF0F200FB12102168085C0790A6
:101E70009DF820009DF81C10884221D101200B9074
:101E80009DF81C003070206903992944401A206194
:101E9000E068284403990844E0606168E068B0FBAA
:101EA000F1F201FB1200E0600398CAF80000B8F1FB
:101EB000000F18D00620C8F8000014E024E013E05A
:101EC000384607F0F2FB0027681C2169081A2061D8
:101ED000681CE1680844E0606168E068B0FBF1F20A
:101EE00001FB1200E0600EE02069401B2061E06809
:101EF0002844E0606168E068B0FBF1F201FB120089
:101F0000E06001200B9005E000BF6D1C2069A84235
:101F10003FF63EAC00BF2069A8420FD10B9868B9CC
:101F200000202061E0682844E0606168E068B0FB60
:101F3000F1F201FB1200E060002060610B9800B13B
:101F400003E0206900283FF71FAC00BF00BF1B98CB
:101F500010B11B990C980860384611B0BDE8F08F9D
:101F600010B501460B78FD4C24680CB1092200E045
:101F70000722012002E00C5C6340401C9042FADB27
:101F80000B5410BD2DE9FF4381B08846DDF8309039
:101F90000024B8F1000F03D1002005B0BDE8F083A4
:101FA000DDE9030100FB01F707F11006304607F0F9
:101FB0004DFB04460CB90020EFE73146204607F000
:101FC00065FCAA2020700420A0700020E070A6F11B
:101FD0000800009002226946601D01F059FD20466C
:101FE000FFF7BEFF04F10805022201A9284601F00F
:101FF0004FFD022203A9A81C01F04AFD022204A9F8
:10200000281D01F045FD3A464146A81D07F0BFFBDB
:10201000B81D81B2284601F05FFD0090A91DC819C6
:102020000222694601F034FDB9F1000F01D0C9F870
:1020300000602046B1E7F8B506460F4614461D4637
:1020400023460122394630460095FFF79BFFF8BD35
:1020500070B505460C46ADB1A4B1204607F0F6FABE
:10206000064676B122462946304607F090FB2346C5
:10207000032201213046FFF7DBFA10B1304607F0AA
:1020800014FB00BF70BD70B505460C46ADB1A4B1E0
:10209000204607F0DBFA064676B12246294630464E
:1020A00007F075FB234603220121304602F02BFD89
:1020B00010B1304607F0F9FA00BF70BD70B50446A4
:1020C0000D4629462046FFF7C3FF70BD70472DE936
:1020D000F04F8FB007460C4601200E901FB9801EAE
:1020E0000FB0BDE8F08F3D682878AA2802D04FF0E5
:1020F000FF30F5E7A8780C287AD1E878802878D1E5
:1021000000200C900D9000260B904FF001094FF02D
:10211000010A8346AA208DF830000C208DF8320089
:1021200080208DF8330001208DF83400A8790D2827
:1021300060D2DFE800F05F0708165F245F5F5F385A
:102140005F3A4B0000BFA8798DF83600082007F0F1
:102150007DFA064616B94FF0000950E008200B90B2
:102160004DE008A801F09BFF4FF0000A0BAB0C22DA
:1021700008A948F20300FFF75EFF06463FE0002093
:102180000A902CB1206918B12069804780B20A906A
:102190004FF0000A0BAB02220AA948F20500FFF734
:1021A0004AFF06462BE001F06EFB4FF0FF300A902D
:1021B00001F080FF0A904FF0000A0BAB04220AA93D
:1021C00048F20B00FFF737FF064618E00FF29018B1
:1021D0004FF0000A404607F0BBFA401C0BAB02462A
:1021E00041460A9048F20C00FFF725FF064606E03C
:1021F00030E0CBE04FF0000900200E9000BF00BFA0
:10220000B9F1000F20D0FEB1BAF1000F06D00CA832
:10221000FFF7A6FE0C9830600D9870601CB9304630
:1022200007F043FA10E0606918B9304607F03DFA4C
:102230000AE0D4F814C00322012130460B9BE0478A
:1022400010B1304607F031FABBF1000F01D001F0B8
:102250001AFB9BE0A87804287ED100200D908046D0
:102260000E900222691D0DA801F012FC05F108066E
:102270000D98801E0D9082E04FF0000900200C9018
:102280004FF0010A0B900A900990022231460BA8E8
:1022900001F0FEFB0222B11C0AA801F0F9FB0222A8
:1022A000311D09A801F0F4FBBDF82C00A0F5004099
:1022B0000A3858BB06F1060B01A801F0F0FE4FF0FA
:1022C000FF3001F0F7FE0090012301A904A8009A55
:1022D00001F016FF1022594604A807F00DFA38B98C
:1022E000002008900022012104A801F02FFF02E045
:1022F0004FF0FF3008900CAB042208A948F20A0006
:10230000FFF799FE814601200E9000E000BF00BF5C
:10231000BAF1000F18D0B9F1000F15D01CB948461A
:1023200007F0C3F910E0606918B9484607F0BDF935
:102330000AE0D4F814C00322012148460C9BE04770
:1023400010B1484607F0B1F9BDF82800BDF82410D7
:102350004843801D80440DE016E00000300100205D
:1023600059415F53425F4B45595F30315F313731DF
:102370003130370005F1080000EB080600BF0D986A
:102380008045FFF479AF01E000200E900E9808B16F
:102390000020A5E64FF0FF30A2E60020FA490870C1
:1023A0000120FA4908700020F9490870F9490870BD
:1023B000F94908700120F949087070477047704763
:1023C000704701460022012003E00B5C1344DAB29F
:1023D000401C0628F9DB0A54704701460022012000
:1023E00003E00B5C1344DAB2401C0A28F9DB0A5400
:1023F00070472DE9FC470746E9A000680190E948CD
:10240000006800904FF0000817B90020BDE8FC8775
:102410003C680CB90020F9E72078012801D00020A1
:10242000F4E704F108052878192801D00020EDE729
:102430000020FEF74FFEDC48D0F800A07CE0002C26
:1024400051D004F10805B8F1000F16D128781928E9
:1024500049D1D548D0F800A0A878022808D100209A
:10246000FEF738FE012204210020FEF7CBFD3AE002
:10247000A878012837D1804635E0B8F1010F32D174
:102480004FF0FF364FF0000909E0287801A911F854
:102490000910884201D14E4604E009F10109B9F161
:1024A000020FF2D300BF701CE0B1BF48D0F800A00B
:1024B000A878022808D11DF816103DF81620100A39
:1024C0000122FEF79FFD0DE0A87801280AD11DF832
:1024D00016103DF81620100A0022FEF793FD06F1B3
:1024E00002082AE000BF3846FEF77DFE0027AE480E
:1024F0000168504601F0E8F941F28831884204D978
:102500000020FEF7E7FD012080E70024FEF765FECE
:10251000074607B910E03C6824B93846FEF763FE69
:10252000002709E02078012805D000243846FEF76E
:102530005AFE002700E000BF81E700BF3846FEF7E3
:1025400052FEB8F1020F44D3B8F1020F03D0B8F134
:10255000030F08D103E001209449087004E006202D
:102560009249087000E000BF00BF01F0E0FFA0B199
:102570008D48D0F800A00120FEF7ACFD00BF8A48CE
:102580000168504601F0A0F940F2DC518842F6D3D0
:102590000020FEF79FFD012038E701264FF00009DB
:1025A00013E086F00106324604210020FEF72AFDE2
:1025B0007D48D0F800A000BF7B480168504601F07C
:1025C00083F96428F8D309F10109B9F10A0FE8D3B6
:1025D00000BF0020FEF77EFD002017E72DE9FC4735
:1025E00007466FA0006801906E48001D00680090CB
:1025F0004FF0000817B90020BDE8FC873C680CB913
:102600000020F9E72078012801D00020F4E704F148
:10261000080528781A2801D00020EDE70020FEF7F1
:1026200059FD6148D0F800A07CE0002C51D004F1A5
:102630000805B8F1000F16D128781A2849D15A4850
:10264000D0F800A0A878022808D10020FEF742FDAB
:10265000012204210220FEF7D5FC3AE0A8780128E7
:1026600037D1804635E0B8F1010F32D14FF0FF3657
:102670004FF0000909E0287801A911F809108842F3
:1026800001D14E4604E009F10109B9F1020FF2D37C
:1026900000BF701CE0B14448D0F800A0A878022820
:1026A00008D11DF816103DF81620100A0122FEF779
:1026B000A9FC0DE0A87801280AD11DF816103DF8F4
:1026C0001620100A0022FEF79DFC06F102082AE0FF
:1026D00000BF3846FEF787FD0027334801685046A3
:1026E00001F0F2F841F28831884204D90020FEF767
:1026F000F1FC012080E70024FEF76FFD074607B9D3
:1027000010E03C6824B93846FEF76DFD002709E06B
:102710002078012805D000243846FEF764FD002704
:1027200000E000BF81E700BF3846FEF75CFDB8F16E
:10273000020F5BD3B8F1020F03D0B8F1030F08D139
:1027400003E001201A49087004E0002018490870CD
:1027500000E000BF00BF01F0EAFEA0B11248D0F8CF
:1027600000A00120FEF7B6FC00BF0F4801685046EC
:1027700001F0AAF840F2DC518842F6D30020FEF7BF
:10278000A9FC012038E715E0C8000020C90000209E
:1027900014000020CA000020CB000020CD00002043
:1027A0000D0E0000F49C00082C010020CE0000203B
:1027B000CF00002001264FF0000913E086F001064B
:1027C000324604210220FEF71DFCFE48D0F800A08E
:1027D00000BFFC480168504601F076F86428F8D341
:1027E00009F10109B9F10A0FE8D300BF0020FEF793
:1027F00071FC002000E7F8B507460E46F2A000681D
:10280000009000242CE0002527E0042000FB045069
:1028100047FA00F000F0010050B1601C1DF8000004
:102820006A00012191400843C1B2601C0DF80010FC
:10283000042000FB045046FA00F000F0010058B1FB
:10284000601C1DF80000012101EB45029140084386
:10285000C1B2601C0DF800106D1C042DD5D3641C92
:10286000022CD0D39DF800009DF8011048409DF83F
:10287000021048408DF8030004216846FFF703FC6E
:10288000F8BD2DE9F04104460D4616461F46072CBB
:1028900001DDBDE8F08116B10020CC4908703DB1E2
:1028A000CA4800780121A1400843C849087006E0E1
:1028B000C64800780121A1408843C449087027B167
:1028C000C24A51781078FFF796FF00BFE1E72DE983
:1028D000F04104460D4616461F46072C01DDBDE8B3
:1028E000F08116B10020B94948703DB1B748407831
:1028F0000121A1400843B549487006E0B34840783B
:102900000121A1408843B149487027B1AF4A5178AD
:102910001078FFF770FF00BFE1E770B504460E4680
:102920001546AB48007838B1FF2C05D085F0010280
:102930003146601CFEF766FB2A4631462046FEF70C
:1029400061FB70BD2DE9F04707464FF00008E9E054
:1029500007F1080000EB8806B078EE2800D1DFE030
:1029600035789C4C0020206060602081AA20207077
:102970009948007860700720A070B078012800D1D5
:102980002071332D7DD2DFE805F0C11A1B1C2122F6
:1029900023292A2B2C2D2E3435363738393F404108
:1029A0004243444A4B4C4D4E4F55565758595A6026
:1029B0006162636985A0A1A2A3A4A5ABB10000BF19
:1029C00000BF4720E070681C6071A0E000BF00BF3E
:1029D0004C20E07005F17C00607198E000BF00BF02
:1029E00000BF00BF00BF4C20E07005F1890060719E
:1029F0008DE000BF00BF00BF00BF00BF4820E070F7
:102A0000A5F10B00607182E000BF00BF00BF00BFF6
:102A100000BF4820E07005F16D00607177E000BFF5
:102A200000BF00BF00BF00BF4820E070A5F111004B
:102A300060716CE000BF00BF00BF00BF00BF482056
:102A4000E07005F17100607161E000BF00BF00BF80
:102A50004420E070A5F12500607158E0B0780228AC
:102A600010D1012207210420FFF757FFA5F128000C
:102A700000F0FF094FEA0970000EE0700F20A0710E
:102A800007E043E000202071002207210420FFF727
:102A900044FF3CE0B07802280FD101220621042037
:102AA000FFF73BFFA5F1280000F0FF094FEA09708E
:102AB000000EE0700F20A07106E0002020710022BF
:102AC00006210420FFF729FF21E000BF00BF00BF5F
:102AD00000BF00BF4820E070A5F11D00607116E046
:102AE0004820E070A5F13100607110E04820E070EE
:102AF000A5F131006071207908B9012000E00020C3
:102B0000024608210620FFF708FF00E008E000BFAA
:102B10002046FFF725FA08212046FFF7CFFA00BF2D
:102B200008F10108786840453FF612AF0120BDE882
:102B3000F0877FB504462948007810B9002004B01A
:102B400070BD244D0020286068602881AA2028706C
:102B50002148007868700720A870207AE870A07A71
:102B60002871207B6871A07BA8711D48007818B17E
:102B7000287940F0400028712846FFF7F1F9082134
:102B80002846FFF79BFA1748007808B90120D6E7D6
:102B900015480078022833D1FF208DF808000E4830
:102BA0000078401CC0B28DF8090000208DF80A00A2
:102BB000207A4006000E8DF80B00A07A8DF80C00EC
:102BC000207B13E02C010020FC000000D00000203E
:102BD000CF000020F40C0020C8000020CD00002011
:102BE000CC000020C9000020CE0000208DF80D0090
:102BF00002A8FFF7E6FB072102A8FFF767FA1FE12B
:102C0000207A4006020E02F07E02FB4800788130F6
:102C1000C0B28DF80000F948007860B902F01E00DB
:102C200018B10120F549087005E002F0600010B10C
:102C30000220F2490870F1480078012828D1F048B4
:102C4000007850B302F01E0038BB01208DF801005F
:102C500006208DF8020001208DF8030000208DF879
:102C600004008DF8050003208DF806008DF807009C
:102C7000FF208DF8080009216846FFF727FA002099
:102C8000DF49087002F0400018B10220DB490870EB
:102C900060E00020D94908705CE001208DF8010057
:102CA00006208DF8020001208DF8030002F00600D6
:102CB000D8B16189C1EBC10303EB01103F21B0FB27
:102CC000F1F01821B0FBF1F301FB1300401CC1B27D
:102CD0008DF8041002F0040119B101218DF80610DD
:102CE00002E002218DF8061005E000208DF80400B6
:102CF00003208DF8060002F01800D8B1A18901EB7D
:102D0000410303EB01103F21B0FBF1F01421B0FBB4
:102D1000F1F301FB1300401CC1B28DF8051002F065
:102D2000080119B101218DF8071002E002218DF888
:102D3000071005E000208DF8050003208DF807003E
:102D4000FF208DF8080009216846FFF7BFF9012030
:102D5000AB490870A948007802286CD1A9480078CE
:102D6000D8B102F06000C0B901208DF80100042044
:102D70008DF8020007208DF8030000208DF8040074
:102D8000FF208DF8050006216846FFF79FF9002017
:102D90009C490870994908704DE002F040004028B5
:102DA00024D1E08900EB80030F20B3FBF0F3062071
:102DB000B3FBF0F100FB11339B1C01208DF80100E7
:102DC00004208DF8020007208DF8030003F1300085
:102DD000C0B28DF80400FF208DF80500062168467A
:102DE000FFF774F901208749087024E0E08900EBBF
:102DF00080030F20B3FBF0F30620B3FBF0F100FBE0
:102E000011339B1C01208DF8010004208DF8020075
:102E100007208DF8030003F12000C0B28DF80400F4
:102E2000FF208DF8050006216846FFF74FF90120C5
:102E30007449087000BF12B900207049087000BFC3
:102E400001207CE670B586B0064618226E496846B9
:102E500006F0E2FC002408E01DF814103DF81420F0
:102E6000100A0022FEF7CEF8641C0C2CF4D3701C60
:102E700088B106EB460080007721B0FBF1F50C2D00
:102E800000D36D1E1DF815103DF81520100A012203
:102E9000FEF7B8F800BF06B070BD70B505465B4CD4
:102EA0000CB9002070BD0020206060602081AA2045
:102EB00020705148007860700720A0708020E0707A
:102EC000207940F080002071287A60712046FFF759
:102ED00047F808212046FFF7F1F8A868FFF7B2FF8E
:102EE0000120DFE770B50546484C0CB9002070BDE5
:102EF0000020206060602081AA2020703E48007879
:102F000060700620A0708020E070287A6071A07147
:102F10002046FFF725F808212046FFF7CFF80120CB
:102F2000E5E72DE9F04100243EE0002639E038488D
:102F300000EB041030F816704FF6FF70874200D196
:102F40002EE03448005D304100F00108B8F1000F78
:102F500005D0F9B2380A0122FFF7DFFC04E0F9B22C
:102F6000380A0022FFF7D9FC06EBC4050C2D0ADB5A
:102F7000182D08DAA5F10C01C8B200231A46414603
:102F8000FFF77FFC0BE0182D09DB242D07DAA5F1F4
:102F90001801C8B200231A464146FFF798FC00BF4B
:102FA000761C082EC3D3641C082CBED31A4A517851
:102FB0001078FFF720FCBDE8F0812DE9F0410546CF
:102FC000164C002700264FE005F1080C0CEB86019B
:102FD0000020002391F802C0BCF1EE0F00D142E0C6
:102FE0000A78A2F1010C0CF0FF02D01002F00703E6
:102FF000082815DB37E00000C8000020260100206B
:103000002501002024010020FC9C0008F40C002075
:103010003A9C000805010020D0000020FE0C002092
:10302000012791F802C0BCF1020F0DD1DFF844C4B2
:103030001CF800C0B84608FA03F84CEA080CDFF8A0
:10304000348408F800C00DE0DFF828C41CF80080C4
:103050004FF0010C0CFA03FC28EA0C08DFF814C44A
:103060000CF8008000BF761C6868B042ACD8D7B1BD
:10307000FF20207004206070FE480168C4F8021030
:103080004068C4F80600FC48FA490A6802604968CA
:1030900041600120F94908702046FFF79EF90B2195
:1030A0002046FFF70BF80120BDE8F0812DE9F04143
:1030B0000746F34C00250026002020606060208138
:1030C000A0723E7A7D8906F0020030B14FF40070A4
:1030D00000EBC500C01D85B209E006F0010020B17B
:1030E000072000EBC50085B201E04FF40075FF201A
:1030F000207001206070A5702812E070BD8906F074
:10310000040030B14FF4007000EBC500C01D85B263
:1031100009E006F0080020B1072000EBC50085B2E9
:1031200001E04FF400752812207165714FF40075AD
:103130002812A071E571A078CF490B390870E078AA
:103140004870607988702079C8700120CB49087078
:103150002046FFF742F90B212046FEF7AFFF012082
:10316000BDE8F08170B50546C54C00202060606068
:103170002081A072FF20207003206070A5702812AB
:10318000E070BD490B398D710120BC4908702046A3
:10319000FFF723F90B212046FEF790FF70BD10B515
:1031A0000446218988B2FFF7DDFF012010BD70B50C
:1031B0000646B34C308985B20020206060602081D3
:1031C000A072FF2020700220607064206843772185
:1031D00090FBF1F085B2A5702812E070A6490B397A
:1031E0008D720120A54908702046FFF7F6F80B21E3
:1031F0002046FEF763FFB068FFF724FE012070BD94
:1032000000B587B001F0ECFC002836D0142102A8EC
:1032100006F05EFB9B48006801909848007890B1EA
:10322000132295490B390DF1050006F0B0FA14216F
:1032300001A801F000FD0020904908709248006844
:103240009249086018E0904801689048006800F0D2
:103250003BFB42F2107188420ED9132286490B398A
:103260000DF1050006F093FA142101A801F0E3FC2A
:10327000854800688549086000BF07B000BD70B58B
:1032800005462C682078052801DB002070BD2078D9
:103290007F4951F8200088B17E480078012806D186
:1032A00020780A4652F8201020468847EEE720781A
:1032B000794A52F8201020468847E7E70020E5E7E2
:1032C0002DE9F04105460E461746002409E015F8A1
:1032D000141035F81420100A3A46FFF71EFB601C44
:1032E00084B2B442F3DBBDE8F0812DE9F04190B047
:1032F00006461EB9012010B0BDE8F0813468E778B9
:10330000A07908B9012000E000208046A0780628B6
:1033100001D10120EFE73846492F77D008DCA0F132
:103320004400052873D2DFE800F01028292A48005D
:103330004C286DD004DC4A286BD04B2867D158E16B
:10334000802867D0C028F9D1A0E14E49091D03C9E2
:10335000CDE90E01607904280EDA002204210EA8BE
:10336000FFF7AEFF62790EAB13F8121033F812209C
:10337000100A4246FFF7D1FAD5E1D4E1D3E1414941
:103380000C3103C9CDE90E016079052814DC6079A0
:10339000022811DB002203210EA8FFF791FF6279BA
:1033A000921E0EAB13F812106279921E33F812209F
:1033B000100A4246FFF7B1FAB5E11822314914313B
:1033C0000AA806F029FA18222E492C3104A806F082
:1033D00023FA6579102D74D00BDC102D72D2DFE842
:1033E00005F0327138393A3B3C3D73747576777825
:1033F000A1A2842D67D015DC802D7DD00BDC112D92
:103400007BD0122D7AD0132D5CD190E0EFE088E1D3
:10341000F0E0EDE039E1812D71D0822D70D0832D67
:10342000F2D19EE0922D6CD006DC852D6AD0902DD5
:1034300069D0912DE8D1B5E0932D71D0942D70D045
:10344000952DE1D1B2E0424609210620FFF765FA49
:10345000CBE000BF00BF00BF00BF00BF00220C21B7
:103460000AA8FFF72DFF6279921E0AAB13F812101B
:10347000627913E0FD000020F3000020FC00002032
:10348000FE0C0020149D00082C01002028010020C3
:10349000D4000020CE00002010010020921E33F83E
:1034A0001220100A4246FFF738FA2079012807D186
:1034B0006179891EC8B201231A464146FFF7E1F936
:1034C00093E031E090E04DE000BF00BF00BF00BFDF
:1034D00000BF00220C2104A8FFF7F2FE6279083A2F
:1034E00004AB13F812106279083A33F81220100A6C
:1034F0004246FFF712FA07E030E016E016E02EE051
:103500002EE050E02FE04CE02079012807D16179CE
:103510000839C8B201231A464146FFF7D8F964E0DA
:1035200042E042E000BF00BF00BF00BF00BFDC4A76
:1035300007CA01AB07C30022062101A8FFF7C0FE9E
:1035400062790E3A01AB13F8121062790E3A33F831
:103550001220100A4246FFF7E0F946E000BF00BF24
:1035600000BF00BF00BF00220C210AA8FFF7A8FE81
:1035700062797A3A0AAB13F8121062797A3A33F820
:103580001220100A4246FFF7C8F92079012807D116
:1035900061797A39C8B201231A464146FFF771F9B9
:1035A00023E000BF00BF00BF00BF00BF00220C210E
:1035B00004A8FFF785FE62798A3A04AB13F812106B
:1035C00062798A3A33F81220100A4246FFF7A5F9C9
:1035D0002079012807D161798A39C8B201231A46B6
:1035E0004146FFF774F900E000BF00BF9BE09AE09E
:1035F00099E098E06579912D2BD008DC802D0FD0D3
:10360000812D0ED0822D0DD0902D3CD120E0922D19
:1036100020D0932D1FD0942D1ED0952D33D11CE09A
:1036200000BF00BF9E490C3103C9CDE90E01002245
:1036300003210EA8FFF744FEA5F180020EAB13F89C
:10364000121033F81220100A4246FFF766F91AE00A
:1036500000BF00BF00BF00BF00BF914A143207CABD
:103660000DAB07C3002206210DA8FFF729FEA5F127
:1036700090020DAB13F8121033F81220100A4246D4
:10368000FFF74BF900BF00BF4DE04CE06079012827
:1036900046D1A07920B102281DD003283DD120E0D9
:1036A000804D0DB9002026E6002028606860288142
:1036B000AA2028707C48007868700720A870C02075
:1036C000E870012068712846FEF74AFC0821284668
:1036D000FEF7F4FC23E00020FDF7FCFCFEF75DFEA6
:1036E0001DE0704D0DB9002005E6002028606860DF
:1036F0002881AA2028706C48007868700720A8707C
:103700008020E870FDF750F868712846FEF728FC25
:1037100008212846FEF7D2FC01E00020EBE500BFBF
:1037200001E00020E7E500BF0120E4E52DE9F041DC
:1037300006465E4C16B90020BDE8F0810B22002140
:10374000204606F09BF837687D78E81F09283DD2AF
:10375000DFE800F0050610113C3C233C360000BFBA
:103760005348D7F802100160D7F806104160FFF700
:10377000D8FB2CE000BFFF20207065704C4801682A
:10378000C4F802104068C4F806002046FEF725FE83
:103790000B212046FEF792FC19E0FF202070657097
:1037A0001120A0700B20E0700720207101206071B3
:1037B0002046FEF712FE0B212046FEF77FFC06E0B6
:1037C000FDF7D2F88046FFF7CDFC00E000BF00BF58
:1037D0000120B1E770B505460DB9002070BD2C6819
:1037E000641C2078F52802D02078F62808D13048CB
:1037F000D4F801100160D4F805104160FFF791FB87
:103800000120EBE710B50446A07A012803D1204639
:10381000FFF76BFD10BDA07A062803D12046FFF705
:1038200085FFF7E7A07A072803D12046FFF7D2FFEC
:10383000F0E70020EEE72DE9F04707461D48007845
:10384000F8B100241AE0002515E01B4800EB041035
:1038500030F815604FF6FF70864200D10AE0012073
:1038600000EB162806F0FF093A4649464046FDF7A8
:10387000C9FB00BF6D1C082DE7D3641C082CE2D3E4
:1038800000BFBDE8F0870D48006800F4E0600C4917
:103890000843001D09490860BFF34F8F00BFFEE7D2
:1038A000589D0008F40C0020C8000020FE0C0020E9
:1038B00005010020CF0000203A9C00080CED00E03C
:1038C0000000FA0500BFFEE70246914201D3881AC4
:1038D0007047C2F1FF300844FAE710B5FDF721FC4C
:1038E00000F06AFF1248007800F00F000F2818D18E
:1038F0001048007800F0030414B9FCF7BEFF0AE09A
:10390000012C02D1FCF7CDFF05E0022C03D0032CE3
:1039100001D1FDF72CF807480078401C05490870D4
:1039200000BF03480068401C0149086010BD00004A
:103930002C0100203401002010B50121080702F0FD
:103940001EFD01217D2002F00DFD10BD10B50121ED
:10395000474802F0B6FA10BD30B5464800684FF44B
:103960007A72B0FBF2F1B1F1807F00D31DE021F05B
:103970007F40401E4FF0E022506150170F22002878
:1039800007DA13071D0E3C4B00F00F04241F1D55D2
:1039900003E013071C0E394B1C5400BF00204FF0EE
:1039A000E02290610720106100BF30BD10B586B0E5
:1039B00004460121880402F0E2FC0021304803F0B3
:1039C00012FD02A803F0ECFC029402A92C4803F0BB
:1039D0007EFC01212A4803F006FD4FF48060ADF81B
:1039E000040003208DF8060018208DF8070001A9B7
:1039F000244802F095F94FF40060ADF8040004206B
:103A00008DF8070001A91F4802F08AF906B010BD21
:103A100010B586B004460121480402F0B0FC002134
:103A2000194803F0E0FC02A803F0BAFC029402A9D2
:103A3000154803F04CFC0121134803F0D4FC04208A
:103A4000ADF8040003208DF8060018208DF807005B
:103A500001A90E4802F064F90820ADF80400042022
:103A60008DF8070001A9094802F05AF906B010BD07
:103A7000000230000000002018ED00E000E400E04B
:103A800000480040000C0140004400400008014094
:103A900010B50346002004E0141A641E0C5D1C548B
:103AA000401C9042F8D310BD30B502460B464FF093
:103AB000FF3002B103B930BD002108E0C4B2555C4B
:103AC0006C40734D55F8244084EA1020491C9942FB
:103AD000F4D3C04300BFEEE770B502460C46FF25A5
:103AE000FF2312B94FF6FF7070BD09E012F8010B09
:103AF00080EA03016748405C80EA05036648455C4C
:103B0000201EA4F10106B4B2F0D143EA0520EBE790
:103B10002DE9F04F03460C46944600221D6800260E
:103B2000DFF87891012C57DD601E53F820203420F7
:103B300090FBF4F000F1060846E04E44C6F381071E
:103B400000211FE0481C53F82050500980EA8500EE
:103B50004FEAD50A8AEA021A504486EA050A01F0B9
:103B6000030B8BEA070B5CF82BB08BEA020BDA44F1
:103B700080EA0A0053F821A0504443F8210053F88A
:103B80002120491C601E8842DCDC1D68500980EA47
:103B900085004FEAD50A8AEA021A824486EA0500BD
:103BA00001F0030B8BEA070B5CF82BB08BEA020BDE
:103BB00058448AEA000A601E53F820008244601EBE
:103BC00043F820A053F82020B8F10000A8F1010824
:103BD000B3DC0020BDE8F08FB4F1FF3F56DA644259
:103BE000601E53F82020342090FBF4F000F106080A
:103BF00008FB09F646E0C6F38107611E20E0481E77
:103C000053F82020500980EA85004FEAD50A8AEA55
:103C1000021A504486EA050A01F0030B8BEA070BEF
:103C20005CF82BB08BEA020BDA4480EA0A0053F806
:103C300021A0AAEB000043F8210053F82150491EAF
:103C40000029DCDC601E53F82020500980EA850042
:103C50004FEAD50A8AEA021A504486EA050A01F0B8
:103C6000030B8BEA070B5CF82BB08BEA020BDA44F0
:103C700080EA0A00D3F800A0AAEB000018601D68D3
:103C8000A6EB0906002EB6D10020A3E70120A1E78C
:103C9000889D000888A1000888A20008B979379E8D
:103CA0002DE9F04707460C46164698464FF00009A6
:103CB00017B10CB1002E03DA4FF0FF30BDE8F087EA
:103CC000FCF786FA814606EB4600C100204605F067
:103CD000FFFD1421384605F0FBFD002510E005EB43
:103CE000450004EBC000A0F80C8005EB450004EB98
:103CF000C000183005EB450104EBC10108616D1CE3
:103D0000701EA842EBDC002005EB450104EBC1016D
:103D100008617E603C604846FCF75EFA0020CDE713
:103D200070B50446002600250CB9002070BDFCF7D4
:103D30004FFA0646206828B12568286920600020CF
:103D4000686128613046FCF747FA2846EEE72DE91E
:103D5000F04106460C46174606B11CB94FF0FF303D
:103D6000BDE8F0814FF0000817B106F10C0001E04A
:103D700006F110000546FCF72BFA8046286818B9B2
:103D80002C606461246109E028682061286840692A
:103D90000461286840696061286844614046FCF716
:103DA0001BFA0020DCE72DE9F04105460F464FF0F5
:103DB0000008002615B90020BDE8F08117B105F113
:103DC0000C0001E005F110000446FCF701FA804602
:103DD000206808B9002618E0266820680069216874
:103DE000884202D1002020600CE0206840692168F0
:103DF000096948612068006921684969086120688B
:103E0000006920600020706130614046FCF7E4F9F1
:103E10003046D1E770B504460D4604B115B94FF0F0
:103E2000FF3070BD0026FCF7D3F9064620682861F4
:103E300025603046FCF7D0F90020F2E72DE9F0418B
:103E400004460D461646002704B11DB94FF0FF3059
:103E5000BDE8F081FCF7BCF907461821204605F0C3
:103E600037FD25607008A060A0682844606038466F
:103E7000FCF7B2F90020EBE72DE9F04704460F46C6
:103E800015464FF00008C14604B11FB94FF0FF308E
:103E9000BDE8F087FCF79CF980466169A068461A86
:103EA000B54202D94FF0FF3929E0E0682844A16803
:103EB00088420FD9D4E90201461AE26821688818BD
:103EC0003246394605F063FCAA1BB919206805F093
:103ED0005EFC06E0E268216888182A46394605F04B
:103EE00056FCE0682844E060D4E90210B0FBF1F22F
:103EF00001FB1200E06060692844606100BF404639
:103F0000FCF76AF94846C3E72DE9F04104460D463F
:103F1000002714B90020BDE8F081606908B90020CD
:103F2000F9E7FCF755F90746D4E904010844A1680C
:103F3000884211D92169A068461A23692268D118DC
:103F40003246606805F023FC63699A1BD4E90013CC
:103F5000981905F01CFC06E0266923689919626926
:103F6000606805F014FCD4E9040108442061A168EC
:103F70002069B0FBF1F201FB120020610DB1606914
:103F80002860002060613846FCF726F96068C2E7C7
:103F90002DE9F0410646042701F0A3FB01F00DFED8
:103FA00004466EB1FE4961EA04050846A043884212
:103FB00017D001F060FC284601F01DFD00F019FB50
:103FC000F7482043C543F649C94344EA0100401C71
:103FD00038B101F050FC15B1284601F00CFD00F09D
:103FE00008FB01F08AFBBDE8F0812DE9F74F04469C
:103FF00090460426DDF804B028F00300404502D0C6
:10400000701FBDE8FE8FA40AA40204EB080901F0AA
:1040100068FB08F2FF304FEA902A352001F0FCFDE2
:10402000002707E04FF4806101FB074001F09EFB91
:1040300006467F1C574501D2042EF3D0042E00D033
:1040400026E02546002708E038467F1C5BF8201054
:10405000284601F05BFC06462D1D4D4501D2042E7D
:10406000F2D0042E00D013E025460426002708E0F5
:104070002A6838467F1C5BF82000824200D0022666
:104080002D1D4D4501D2042EF2D101F02AFB00BFB7
:10409000042E02D04FF0FF30B3E70020B1E770B537
:1040A000044634B10C252A46BE49204605F0B4FB2F
:1040B00000BF70BD2DE9F04107460026BA4D00242F
:1040C00015E055F82400401C78B9601C55F8200014
:1040D000401C50B9A01C55F82000401C28B9E01C19
:1040E00055F82000401C00B903E0361D641CBE4298
:1040F000E7D300BF3146AC48FFF7D6FCBDE8F081FE
:104100002DE9FF4104460D4616461F4604B125B968
:104110004FF0FF3004B0BDE8F08195E807008DE86E
:10412000070003964FB19DE80F0084E80F006A4630
:1041300004212046FFF7ECFC06E09C4820606A461C
:1041400001212046FFF7E4FC0020E3E72DE9F043DE
:104150008BB006460F46154626B94FF0FF300BB020
:10416000BDE8F0834FF00409E84696E80F0001AC83
:104170000FC417B18E48009009E08C4800900020D1
:10418000CDE9065001AA022106A8FFF7C1FC0020D4
:104190000890002405E058F824100898484008903A
:1041A000641C082CF7D301F09CFA342001F034FD94
:1041B000804801F0DBFA8146E846002410E058F818
:1041C00024107C4A02EB840001F0A0FB8146B9F187
:1041D000040F04D001F091FA4FF0FF30BFE7641CE8
:1041E0000A2CECD301F089FA0020B8E72DE9F0435E
:1041F00087B0054688466F4C6F480068401CB0B9D0
:104200006E48FFF74CFF4FF0FF30FFF753FF6A494E
:10421000086000230846694902686948FFF770FF93
:1042200001236548654902686648FFF769FF6648EB
:10423000007800287CD15D492068884203D05C4921
:104240002068884267D1DFF86C910027002603E0E0
:1042500059F826004740761C082EF9D3206AB84248
:1042600058D152492068884238D155480068616861
:10427000884224D1D4E90601CDE90401221D6FF062
:10428000010104A8FFF744FC0020DDE90421D2F17C
:104290000302884103D204204B4908700EE0484BCA
:1042A0000FCB8DE80F0004994A1C4FF000016846BF
:1042B000FFF74CFF01204449087000BF2AE0404B43
:1042C0000FCBCDE90423CDE902010422002102A88D
:1042D000FFF73CFF04203C4908701BE01022211D21
:1042E000384805F009FA18B903203749087011E079
:1042F000334BD3E901211868DB68CDE90413CDE91C
:1043000002020422002102A8FFF720FF04202E4908
:10431000087000BF0CE02A4B0FCB02AE0FC6002284
:10432000114602A8FFF712FF01202749087000BFBD
:1043300025480078012831D12448016824480068C4
:10434000FFF7C2FA44F62061884227D9D4E9060172
:10435000CDE90401201D0FC88DE80F001B4800683F
:104360001B490860221D6FF0010104A8FFF7D0FB74
:104370000498421C4FF000016846FFF7E7FE00205A
:10438000DDE90421D2F10302884102D204200E4962
:10439000087015B141460220A84700BF0A4819E03D
:1043A000F8FFFF01E8F7FF1F003000086745230111
:1043B000EFCDAB8900900108400100200C0D0020DA
:1043C000280D0020180D0020380100202C010020AD
:1043D0003C0100200078042821D11022211D8B48A7
:1043E00005F08AF928B903208949087007B0BDE8AB
:1043F000F08315B141460420A847864801688648E5
:104400000068FFF761FA44F62061884207D98148C5
:1044100000688149086015B141460520A84700BFE2
:10442000E4E770B50446042501F05BF900BF3420D1
:1044300001F0F2FB01F01FFA0546042D00D005E063
:104440002146764801F0B3FA054600BF00BF01F0EF
:1044500054F9042D01D1002070BD4FF0FF30FBE76F
:104460006E480078704770B586B0142101A805F039
:104470002FFA002501AE1422694901A805F0CCF9F4
:10448000BDF804004AF2A551884200D033E0002470
:1044900004E036F81400284485B2641C092CF8D3D3
:1044A000BDF81600A84225D1BDF806005D49088078
:1044B000BDF808005C490880BDF80A005B49088027
:1044C000BDF80C005A490880BDF80E005949088013
:1044D000BDF8100058490880BDF81200574908700F
:1044E000BDF8140008B1012000E000205449087014
:1044F00006B070BD00BF08204A49088040F236600F
:104500004949088040F6F610484908802820484963
:1045100008804FF47D604749088030204649088074
:104520000120464908704649087000BFE0E72DE9C0
:10453000F04186B04FF00408142101A805F0C8F935
:10454000002501AE364F4AF2A550ADF804003548BB
:104550000088ADF8060034480088ADF808003348FC
:104560000088ADF80A0032480088ADF80C003148E8
:104570000088ADF80E0030480088ADF810002F48D4
:104580000078ADF812002E480078ADF81400002431
:1045900004E036F81400284485B2641C092CF8D3D2
:1045A000ADF8165001F09DF8342001F035FB1C48A1
:1045B00001F0DCF88046002410E036F8141038468C
:1045C00001F0D7F98046B8F1040F05D001F095F855
:1045D000002006B0BDE8F081BF1C641C0A2CECD39F
:1045E00001F08BF80120F4E7024610880B88C01A0E
:1045F00070471448006800F4E06013490843001D48
:1046000010490860BFF34F8F00BFFEE7180D002070
:10461000380100202C0100203C01002004F8FF1F7D
:1046200000F0000816000020180000201A000020EA
:104630001C0000201E00002020000020CE000020D2
:10464000CF0000200CED00E00000FA0500B587B0B7
:1046500004A802F0EBFA684602F0F1FA0121C80260
:1046600001F080FE8220ADF8140040F26710ADF832
:1046700010000020ADF81600ADF8120004A9814822
:1046800001F0A8FF01217F4802F0C6FD6020ADF8CF
:1046900000000120ADF802006420ADF80600022001
:1046A000ADF808006946774801F0D1FF012175484F
:1046B00002F0F8FA07B000BD08B54FF48070ADF80D
:1046C000000018208DF8030003208DF802006946D1
:1046D0006D4801F025FB08BD08B54FF48070ADF8BA
:1046E000000010208DF8030003208DF802006946B9
:1046F000654801F015FB00224FF48071624801F01B
:10470000C0FB08BD10B5FFF7A1FF10BD2DE9F041BA
:1047100004465E49A0680968FFF7D6F80546A088F8
:10472000E17800FB01F6AE4218D2607808B90120AA
:1047300000E000206070074637B10121514802F0C7
:10474000A5FAFFF7B9FF05E000214E4802F09EFAF6
:10475000FFF7C2FFE078401CE07000BFE078A1786E
:1047600088420CDD002020700021464802F08EFABD
:10477000FFF7B2FF00204649087046490870BDE8BF
:10478000F08170B504460D4616460120207068067B
:10479000000EA0700120E070A6803C480068A06078
:1047A000012060700121374802F070FAFFF784FFA2
:1047B00070BD37490870704710B53748007800B3AE
:1047C00034480078012807D0022804D0032804D0F8
:1047D000042807D102E000BF00BF00BF2E48FFF74A
:1047E00095FF0DE00021274802F050FAFFF774FF13
:1047F000002029490870264908702649087000BF22
:104800003FE02448007822490978884239D020487E
:104810000078204908700846007801280DD0022849
:1048200004D0032810D004281CD114E04FF4FA72ED
:1048300003211948FFF7A5FF22E04FF47A72012106
:104840001548FFF79EFF1BE04FF4FA720121124852
:10485000FFF797FF14E04FF4FA7202210E48FFF7BA
:1048600090FF0DE00021074802F010FAFFF734FF37
:10487000002009490870064908700649087000BF01
:1048800000BF10BD002C0140000801402C01002099
:104890004501002044010020380D002000B587B0FC
:1048A0000121880401F06BFD03A802F079FD4FF4AB
:1048B0009650039003A9A94802F009FD0121A748D9
:1048C00002F091FD4FF48060ADF8080003208DF8F0
:1048D0000A0018208DF80B0002A9A14801F020FA67
:1048E0004FF40060ADF8080004208DF80B0002A919
:1048F0009B4801F015FA27208DF8040004208DF85C
:10490000050000208DF8060001208DF8070001A8A1
:1049100000F07FFA012240F22551904802F06FFD2D
:104920000121084601F011FD43F290008D49C86154
:104930008A48001D486200200862886201228021A6
:10494000864802F081FD07B000BD38B58348048871
:1049500004F0200050B18148001D0088C0B20090D2
:10496000012269468048FFF787FA00BF38BD10B5BD
:10497000032308227D497E48FFF792F940227D49B2
:104980007948FFF75BFA40227B497C48FCF79CFEA4
:10499000FFF784FF10BDF0B585B0054600BF0027C6
:1049A0000020049004A97048FFF7AEFA074607B943
:1049B0002CE028E00026002003900290002402A9A9
:1049C00003ABCDE9001039466C48049AFCF78EFE23
:1049D000064606B918E06648FFF7A2F904461CB976
:1049E000304604F062FE0FE026600398606001200C
:1049F00020720298A072012221465D48FFF7A7F9B4
:104A00000020049000BFD5E700BF00BF00BF00BF7B
:104A100000245B480078E0B15248006800F02000B4
:104A200010B905B148E048E04C48008800F040006B
:104A300010B905B140E040E010204A4948605148B3
:104A4000007A18B14F49086804F02FFE00204C4945
:104A5000087000214648FFF7A6F904465CB3606879
:104A6000002801DD206848B9207A20B1206810B103
:104A7000206804F01AFE05B11EE01EE03948C06946
:104A800020F001003749C8616068086220688862C8
:104A90000846C06940F00100C8610120384908702B
:104AA00018222146374804F0B7FE21463048FFF768
:104AB000B1F905B100E000E0AAE700BF00BF0024A3
:104AC00001212B48FFF76FF9044614B1204605B0C9
:104AD000F0BD00BF0020FAE710B5044644B1207ACB
:104AE00010B1206804F0E1FD21462148FFF792F95A
:104AF00010BD10B504461CB121461D48FFF78AF9C8
:104B000010BD402070472DE9F04105460E46904605
:104B10001F46002415B9601EBDE8F0811448FFF758
:104B2000FFF8044614B94FF0FF30F5E725606760E1
:104B30002672002221460E48FFF709F90020EBE714
:104B400010B5044604B910BD0020A0810C2060817E
:104B50002146024802F0BBFB00BFF4E700480040DA
:104B6000000C014000000240580E0020440D0020BF
:104B7000040E0020180E0020700E0020B00E002041
:104B800046010020C80E002010B5022310229649CD
:104B90009648FFF785F8402295499648FFF74EF969
:104BA000002003F033F99448046800BF924801687C
:104BB0002046FEF789FE6428F8D3012003F026F989
:104BC00003F0C7F803F082F803F012FF10BD70B5D0
:104BD00004460D462A4621468648FFF74DF970BD2A
:104BE00086480068052801D1012070470020FCE7B5
:104BF0002DE9F04105460E4690461F460024FFF77A
:104C0000EFFF10B9601EBDE8F08115B94FF0FF301D
:104C1000F9E77648FFF784F8044614B94FF0FF30FF
:104C2000F1E7256067602672002221466F48FFF792
:104C30008EF80020E7E770B505460C46FFF7D0FF79
:104C400000B970BDADB1A4B1204604F0FFFC06462A
:104C500076B122462946304604F099FD23460322C8
:104C600001213046FFF7C4FF10B1304604F01DFDAE
:104C700000BF00BFE5E7F8B5054600BF00270020EC
:104C8000009069465B48FFF73FF9074607B92CE0FB
:104C900026E000240A2004F0D9FC064606B922E0EA
:104CA0005248FFF73DF804461CB9304604F0FDFCBD
:104CB00019E0386830607868706038893081266023
:104CC0000A206060012020720720A0720122214684
:104CD0004648FFF73CF800980A3800900A3700BFB2
:104CE00000980A28D5DA00BF00BF00BF00BF00242B
:104CF00043480078A8B141480068052807D1012041
:104D000004F008F9202802D005B146E046E03D480D
:104D1000007A18B13B49086804F0C7FC0020384904
:104D2000087000213148FFF73EF804469CB36068E4
:104D3000002801DD206848B9207A20B1206810B130
:104D4000206804F0B2FC05B127E027E02B4800689A
:104D500005280AD0207A10B1206804F0A6FC21466C
:104D60002248FFF757F8B5B117E08120D4E90012C7
:104D700004F03AFC012004F0DFF80120204908701B
:104D8000182221461F4804F047FD21461748FFF727
:104D900041F805B101E0FFE700E0A8E700BF00BF70
:104DA000002401211148FEF7FEFF04460CB1204605
:104DB000F8BD00BF0020FBE710B5044644B1207ADF
:104DC00010B1206804F071FC21460848FFF722F872
:104DD00010BD10B504461CB121460448FFF71AF86F
:104DE00010BD002070470000E00E00206010002081
:104DF00074100020B41000202C0100206402002058
:104E000047010020CC10002031490143314A116094
:104E1000704770B5002100230F22C47804B32D4CD5
:104E2000246804F4E064C4F5E064210AC1F10403D9
:104E3000CA40447804FA03F18478144021430901FC
:104E4000254C0678A155047804F01F050124AC40D8
:104E500005786D11AD0005F1E025C5F8004109E0C8
:104E6000047804F01F050124AC401C4D067876112F
:104E700045F8264070BD1A4A0A400243154B1B1FD5
:104E80001A60704739B1134A121D12680243114B60
:104E90001B1D1A6006E00F4A121D126882430D4B5B
:104EA0001B1D1A607047042808D14FF0E0210969E2
:104EB00041F004014FF0E022116107E04FF0E021E2
:104EC000096921F004014FF0E022116170470000F0
:104ED0000000FA050CED00E000E400E080E100E0F5
:104EE00080FFFF1F10B50446FA48844208D1012113
:104EF000401501F051FA0021601501F04DFA17E05C
:104F0000F548844208D10121001501F045FA00213D
:104F1000201501F041FA0BE0F048844208D101214C
:104F2000C80301F039FA00214FF4004001F034FACF
:104F300010BD30B50246002000235068E84C2040E8
:104F40000D790C6844EA0524204350609068E54CD4
:104F50002040D1E902542C434D7944EA45042043D2
:104F60009060D06A20F470000C7C641EE4B223438D
:104F700040EA0350D06230BD0021016001714171EF
:104F80008160C16001210174704721B1826842F0E3
:104F90000102826003E0826822F0010282607047B1
:104FA00021B1826842F48072826003E0826822F458
:104FB00080728260704710B50023CBB21AB144688A
:104FC0001C43446002E044689C43446010BD816817
:104FD00041F0080181607047014600208A6802F0B4
:104FE00008020AB1012000E000207047816841F00A
:104FF000040181607047014600208A6802F00402C3
:105000000AB1012000E00020704721B1826842F41B
:10501000A002826003E0826822F4A00282607047EE
:10502000014600208A6802F480020AB1012000E0F3
:105030000020704710B50A4600210023416821F482
:105040006041531E41EA4331416010BD21B14268C5
:1050500042F40062426003E0426822F4006242606F
:105060007047F0B504460D4600200021092D11DDE2
:10507000E068A5F10A0606EB4607072606FA07F1DF
:105080008843A5F10A0606EB460603FA06F1084333
:10509000E0600CE0206905EB4507072606FA07F1FA
:1050A000884305EB450603FA06F108432061072A09
:1050B0000FDA606B561E06EB86071F2606FA07F10D
:1050C0008843561E06EB860605FA06F10843606320
:1050D00022E00D2A0FDA206BD61F06EB86071F266B
:1050E00006FA07F18843D61F06EB860605FA06F195
:1050F0000843206310E0E06AA2F10D0606EB860784
:105100001F2606FA07F18843A2F10D0606EB860674
:1051100005FA06F10843E062F0BD21B1826842F46D
:105120008012826003E0826822F4801282607047FD
:105130000146C86C80B2704766484C3000687047C2
:1051400021B1426842F48062426003E0426822F486
:1051500080624260704721B1426842F480524260EE
:1051600003E0426822F48052426070470A46002100
:10517000816821F4E04111438160704721B1826868
:1051800042F40042826003E0826822F400428260BE
:10519000704721B1826842F40212826003E08268A3
:1051A00022F4021282607047014600208A6802F4ED
:1051B00000120AB1012000E000207047F0B504465B
:1051C0001546002000220026092911DDE068A1F122
:1051D0000A0707EB470C072707FA0CF29043A1F1E7
:1051E0000A0707EB470703FA07F21043E0600CE0F9
:1051F000206901EB410C072707FA0CF2904301EB01
:10520000410703FA07F210432061A06BC0F3015677
:10521000EF1C06F1010CA7EB0C0707EB870C1F270F
:1052200007FA0CF29043EF1C06F1010CA7EB0C07F8
:1052300007EB870701FA07F21043A063F0BD10B532
:105240000A4600210023816B21F44011531E41EADC
:105250000351816310BD08B5002300930090009BAB
:105260000B440093009B1A6008BD08B5024600205D
:105270000090009201F12800009B184400900098D3
:10528000006880B208BD0A4600214168164B1940EB
:105290001143416070474162826270470A460021B3
:1052A000416821F01F0111434160704740B1094935
:1052B0000831096841F40001064A0832116007E02C
:1052C00004490831096821F40001024A08321160DA
:1052D000704700000024014000280140003C0140CC
:1052E000FFFEF0FFFDF7F1FFFFFD3FFF024600204C
:1052F00013680B400BB1012000E000207047CA4347
:105300000260704770B502460020002300240B1293
:105310005568CEB205EA060415681D4015B10CB1FA
:10532000012000E0002070BD00220A12D343036078
:105330007047000001684FF6FE72114001600021C5
:10534000016041608160C1608D49884208D18C490B
:105350000839496841F00F01894A083A51608AE0EA
:1053600087491431884208D185490839496841F094
:10537000F001834A083A51607DE081492831884232
:1053800008D17F490839496841F470617C4A083A7C
:10539000516070E07A493C31884208D17849083937
:1053A000496841F47041764A083A516063E07449B3
:1053B0005031884208D172490839496841F4702156
:1053C0006F4A083A516056E06D496431884208D10D
:1053D0006B490839496841F47001694A083A5160DB
:1053E00049E067497831884208D1654908394968F8
:1053F00041F07061624A083A51603CE0614988427C
:1054000006D1011F096841F00F01021F116032E04F
:105410005C491431884208D15A49091F096841F092
:10542000F001584A121F116025E056492831884280
:1054300008D15449091F096841F47061514A121F8B
:10544000116018E04F493C31884208D14D49091F8D
:10545000096841F470414B4A121F11600BE0494941
:105460005031884207D14749091F096841F470212A
:10547000444A121F1160704710B50022026847F6B7
:10548000F0739A430C6A8B6823430C6923434C697D
:1054900023438C692343CC6923434C6A23438C6A9E
:1054A00023431A430260CB6843600B6883604B68F8
:1054B000C36010BD0021016041608160C160016175
:1054C00041618161C161016241628162704721B1C4
:1054D000026842F00102026004E002684FF6FE73C7
:1054E0001A40026070471AB103680B43036002E080
:1054F00003688B430360704741607047014648680A
:1055000080B2704701460020002201F080531BB199
:105510001C4B083B1A6802E0194B083B1A6802EA68
:1055200001030BB1012000E00020704700F0805122
:1055300019B11449091F086002E01149083948608F
:10554000704701460020002201F080531BB10D4B33
:10555000083B1A6802E00A4B083B1A6802EA01039A
:105560000BB1012000E00020704700F0805119B11C
:105570000449091F086002E0014908394860704782
:105580000800024008040240002044490860091D48
:105590000860091D0860091D086041483F49143131
:1055A0000860704700213D498279002A3AD00A46B6
:1055B000126803689A430B461A600A1D1268036852
:1055C0009A430B1D1A60027911440A6803681A4352
:1055D0000A60324A0832126803689A432F4B083334
:1055E0001A601A1D126803689A432C4B0C331A6018
:1055F0004279102A0ED11A1F126803681A43274BEA
:1056000008331A601A1D126803681A43234B0C33BF
:105610001A600DE02149427911440A6803681A436F
:105620000A6005E0027911440A6803689A430A6037
:1056300070470021016001710C21417100218171CD
:1056400070471649103109680143144A103211603D
:10565000704701460020114A143212680A400AB10C
:10566000012000E0002070470C49143108607047A9
:10567000014600200022094B1B6803EA0102074B88
:1056800014331B680B4013B10AB1012000E0002065
:10569000704702491431086070470000000401405F
:1056A000FFFF0F0001460020FE4A106800F038009E
:1056B000084310607047FB49096821F00801F94A66
:1056C000116011460968014311607047F549096886
:1056D00021F01001F34A116011460968014311607D
:1056E0007047F148EF494860F04848607047EE481D
:1056F000EC494860ED4848607047EA48006940F06E
:105700008000E84908617047E648006940F0800081
:10571000E449086170470420E249C96801F00101C9
:1057200009B101200EE0DF49C96801F0040109B1A7
:10573000022007E0DB49C96801F0100109B103202C
:1057400000E00420704700B502460423FFF7E3FFA2
:10575000034603E0FFF7DFFF0346521E012B01D192
:10576000002AF7D102B90523184600BD30B504461A
:1057700004254FF43020FFF7E6FF0546042D17D12E
:10578000C848006940F00200C64908610846446103
:10579000006940F0400008614FF43020FFF7D3FF6C
:1057A0000546C048006941F6FD710840BD490861E1
:1057B000284630BD10B504244FF43020FFF7C3FF56
:1057C0000446042C16D1B748006940F00400B549DE
:1057D00008610846006940F0400008614FF430203D
:1057E000FFF7B1FF0446AF48006941F6FB7108407E
:1057F000AC490861204610BD00B502460423FFF7FE
:105800008AFF034603E0FFF786FF0346521E012B83
:1058100001D1002AF7D102B90523184600BD10B501
:1058200004244FF43020FFF7E7FF0446042C16D180
:105830009C48006940F004009A49086108460069E4
:1058400040F0400008614FF43020FFF7D5FF0446D8
:105850009448006941F6FB7108409249086120466E
:1058600010BD00208F49C96901F0020109B1012072
:1058700000E00020704730B5A5250424FFF7F1FFB4
:1058800000B100254FF43020FFF75DFF0446042CE3
:105890003AD1854883498860844888600846006911
:1058A00040F0200008610846006940F040000861AF
:1058B0004FF43020FFF747FF0446042C1BD17948F2
:1058C000006941F6DF7108407649086108460069C1
:1058D00040F01000086176480580E002FFF733FFD2
:1058E0000446052C10D06F48006941F6EF7108405E
:1058F0006C49086108E0052C06D06A48006941F649
:10590000EF71084067490861204630BD78B506460A
:105910000C46042500200090E802FFF714FF05461E
:10592000042D24D15F48006940F001005D49086101
:105930003480E802FFF707FF0546042D10D1B01CA4
:105940000090200C00990880E802FFF7FCFE054655
:105950005448006941F6FE7108405249086106E06A
:105960005048006941F6FE7108404E4908612846DA
:1059700078BD70B504460D460426F002FFF7E3FE3D
:105980000646042E11D14748006940F00100454900
:1059900008612580F002FFF7D6FE064641480069FF
:1059A00041F6FE7108403F490861304670BD70B550
:1059B00005460E460424E002FFF7C5FE0446042C0B
:1059C00017D13948374988603848886008460069E7
:1059D00040F0100008612E80E002FFF7B4FE04469C
:1059E000052C06D02F48006941F6EF7108402D497B
:1059F0000861204670BD2DE9F04304464FF6FF765E
:105A00003746B046B1460425E443E6B2C4F307275F
:105A1000C4F307484FEA1469E802FFF794FE05460D
:105A2000042D49D120481F498860204888600846D5
:105A3000006940F010000861FF2E06D01C480830B5
:105A40000680E802FFF77FFE0546042D08D1FF2FF0
:105A500006D017480A300780E802FFF774FE0546B3
:105A6000042D0AD1B8F1FF0F07D011480C30A0F86F
:105A70000080E802FFF767FE0546042D0AD1B9F160
:105A8000FF0F07D00A480E30A0F80090E802FFF799
:105A90005AFE0546052D0FD00248006941F6EF7108
:105AA000084007E00020024023016745AB89EFCDA5
:105AB00000F8FF1F664908612846BDE8F08330B54D
:105AC000054604244FF43020FFF73DFE0446042C25
:105AD00041D160485E4988605F4888600846006937
