:020000040800F2
:10000000D0160020E1010008E9010008EB0100081A
:10001000ED010008EF010008F101000800000000F8
:10002000000000000000000000000000F3010008D4
:10003000F501000800000000F7010008FF35000886
:10004000FB010008FB010008FB010008FB010008A0
:10005000FB010008FB010008FB010008FB01000890
:10006000FB010008FB010008FB010008FB01000880
:10007000FB010008FB010008FB010008FB01000870
:10008000FB010008FB010008FB010008FB01000860
:100090005F7B0008FB010008FB010008FB01000872
:1000A000FB010008FB010008FB010008FB01000840
:1000B000FB010008FB010008FB010008FB01000830
:1000C000FB010008FB010008FB010008FB01000820
:1000D000FB0100089B140008FB0100084F460008C4
:1000E000FB010008FB010008677B000800F002F834
:1000F00000F05EF80AA090E8000C82448344AAF164
:100100000107DA4501D100F053F8AFF2090EBAE861
:100110000F0013F0010F18BFFB1A43F0010318473B
:10012000BC9F0000DC9F00000A444FF0000C10F858
:10013000013B13F0070408BF10F8014B1D1108BF65
:1001400010F8015B641E05D010F8016B641E01F805
:10015000016BF9D113F0080F1EBF10F8014BAD1C55
:100160000C1B09D16D1E58BF01F801CBFAD505E073
:1001700014F8016B01F8016B6D1EF9D59142D6D3CD
:10018000704700000023002400250026103A28BFF5
:1001900078C1FBD8520728BF30C148BF0B607047F9
:1001A0001FB59DE8030009F05BFA1FBD10B510BD37
:1001B00009F0B2FA1146FFF7F3FF01F051F809F028
:1001C000D0FA03B4FFF7F2FF03BC09F001FB000013
:1001D000EFF3108072B6704780F31088704700000C
:1001E0000948804709480047FEE7FEE7FEE7FEE7CB
:1001F000FEE7FEE7FEE7FEE7FEE7FEE70448054907
:10020000054A064B70470000FF020008ED00000899
:10021000D0100020D0160020D0120020D0120020D4
:100220000CB50020019000906D48006840F48030CB
:100230006B49086000BF6A48006800F40030009015
:100240000198401C0190009818B90198B0F5A06F72
:10025000F1D16348006800F4003010B10120009033
:1002600001E0002000900098012843D15D4800681B
:1002700040F010005B4908600846006820F0030069
:1002800008600846006840F0020008605448406872
:10029000534948600846406848600846406840F452
:1002A000806048600846406820F47C10486008463A
:1002B000406840F4E81048600846006840F08070EC
:1002C000086000BF4648006800F000700028F9D0C0
:1002D0004348406820F003004149486008464068B0
:1002E00040F00200486000BF3D48406800F00C004C
:1002F0000828F9D10CBD10B5FFF792FF10BD10B55D
:100300003748006840F001003549086008464068F9
:10031000354908403249486008460068334908407A
:100320002F4908600846006820F4802008600846CD
:10033000406820F4FE0048604FF41F008860FFF71B
:10034000DAFF4FF000602A4908602A48091D08605A
:1003500010BD10B5002100200022214B5B6803F086
:100360000C0121B1042906D0082928D107E0224B2D
:10037000224C236027E0204B204C236023E0184BC5
:100380005B6803F47010164B5B6803F48032022341
:1003900003EB904022B91A4B4343184C23600DE005
:1003A0000F4B5B6803F4003323B1154B4343134CED
:1003B000236003E0104B4343104C236003E00E4BDB
:1003C0000E4C236000BF00BF054B5B68C3F30313F3
:1003D0000C4CE15C094B1B68CB40084C236010BD02
:1003E00000100240002002400000FFF8FFFFF6FE70
:1003F00008ED00E00003FA0500127A00000000207A
:1004000000093D000400002038B500208DF80300ED
:1004100000240BE0FC4830F81400ADF80000FB4964
:1004200051F82400694605F0FDFA641C052CF1D34F
:1004300038BD10B590B00BA804F020FC684604F05D
:10044000BBFE4FF4004005F073FD0121084605F0A6
:10045000FEFD0121480205F007FEED4804F0ECFD29
:10046000EC480090EC48019000200290502003904E
:1004700000200490802005904000069080000790A6
:10048000202008900002099000200A906946E04868
:1004900004F074FE0121DE4804F09BFE00200B9066
:1004A00001208DF830008DF831004FF460200D9060
:1004B00000200E9005208DF83C000BA9D5484C3843
:1004C00004F0B9FB002409E0601CC2B2D348015D0E
:1004D0000323D0484C3804F046FC641C052CF3D3AD
:1004E0000121CC484C3804F0DDFB0121C9484C38CF
:1004F00004F0CDFBC7484C3804F0EBFB00BFC54807
:100500004C3804F0EBFB0028F9D1C2484C3804F019
:10051000EFFB00BFBF484C3804F0EFFB0028F9D1D7
:100520000121BC484C3804F0F2FB10B010BD10B5EE
:10053000FFF76AFFFFF77DFF0E21B94809F028F8A1
:10054000B8480021016010BD10B501460022052009
:1005500091FBF0F400FB1410C1B20B4604E0AE486E
:1005600030F8130002445B1D502BF8D3120990B2EF
:1005700010BD2DE9F0410446AB48007800287AD040
:10058000A71C00260020207000253FE0E8B2FFF7FE
:10059000DBFF0646B6F5186F18DBB6F5686F03DBB0
:1005A0007F2027F8150006E0A6F518600A2190FBC9
:1005B000F1F027F8150025B9207840F002002070EE
:1005C00023E0207840F0040020701EE0B6F5D06FE4
:1005D00018DCB6F5C07F03DC7F2027F8150006E0A5
:1005E000C6F5D0600A2190FBF1F027F8150025B977
:1005F000207840F00100207007E0207840F00800EB
:10060000207002E0002027F815006D1C022DBDD3DC
:10061000608840106080A0884010A080207850B989
:10062000607830B10E21204608F0B2FF0120BDE80D
:10063000F0810020FBE760782178884217D121788B
:10064000002001F0030232B1628823899A4202D06D
:1006500001206288228101F00C0232B1A2886389F4
:100660009A4202D00120A2886281E0E703E020786C
:1006700060700120DBE7A71C002600202070002509
:1006800052E0E8B2FFF760FF064640F23370864260
:1006900021DC40F2B450864203DC7F2027F81500AD
:1006A00007E040F23370801B032190FBF1F027F844
:1006B000150025B9207840F00100207033E0012DAD
:1006C00004D1207840F0080020702CE0207840F021
:1006D0002000207027E040F6A900864220DB40F68B
:1006E0002820864203DB7F2027F8150006E0A6F6C7
:1006F000A900032190FBF1F027F8150025B9207817
:1007000040F0020020700EE0012D04D1207840F06E
:100710000400207007E0207840F01000207002E014
:10072000002027F815006D1C032DAAD36088401007
:100730006080A0884010A080E088C010E080207811
:1007400048B9607828B10E21204608F021FF012029
:100750006DE700206BE760782178884220D121780E
:10076000002001F0030232B1628823899A4202D04C
:1007700001206288228101F00C0232B1A2886389D3
:100780009A4202D00120A288628101F0300232B187
:10079000E288A3899A4202D00120E288A28146E73A
:1007A00020786070012042E71E48007870472DE9EC
:1007B000F04105460320FFF7C7FE04466F781B484B
:1007C0000088844201DB00240FE01948008884423D
:1007D00007DC1848008800EB0010C0EBC00084B2B2
:1007E00003E012480088001B84B26E88A64224DD14
:1007F000301B81B20F4A108800EBD072B1EB620F50
:100800001ADA0020BDE8F0811C9800082C000020B6
:10081000080002404C2401405C0200202698000899
:10082000FC02002022000020150000201A000020F9
:1008300018000020160000200CE0A01B81B2D94A4D
:10084000108800EBD072B1EB620F02DA0020BDE835
:10085000F08100BF2646D348008894FBF0F084B2B4
:10086000A74208D0E0B268702870CE480088604384
:1008700068800120EBE70020E9E700B58BB0CA48AB
:10088000FFF777FE58B102208DF804000E22C6490A
:1008900003A808F0FEFD01A800F0C0FC00BF0BB0EB
:1008A00000BD00B58BB0C148FFF781FF48B1002003
:1008B0008DF80400BD480078039001A800F0AEFC5C
:1008C00000BF0BB000BD2DE9F04105460420FFF745
:1008D0003BFE04466F780026B5480088844201DA62
:1008E000002403E0B2480088201A84B2B14800888E
:1008F000AF490988401AA04205DAAE480088AC49E1
:100900000988401A84B26E88A6420DDD301B81B280
:10091000A94A1088C21700EB9272B1EBA20F02DA5B
:100920000020BDE8F0810CE0A01B81B2A24A108833
:10093000C21700EB9272B1EBA20F01DA0020F0E7D0
:1009400000BF26469C48008894FBF0F084B2642CDB
:1009500000DD6424BC4205D0E0B2287068706E806F
:100960000120DEE70020DCE794484078704700B5BE
:100970008BB09248FFF7A7FF48B103208DF8040021
:100980008E480078039001A800F048FC00BF0BB02F
:1009900000BD70B502460B460024002100259A4296
:1009A00001DD002070BD981A84B2F02C01DA00201D
:1009B000F8E7782094FBF0F081B2C1EB0110A4EBD2
:1009C000C00085B23B2D06DA481E81B2C1EB011092
:1009D000A4EBC00085B2284605EBD076C6F34F05E0
:1009E000501982B2C1EB011002EBC000401E83B26D
:1009F0006C48018072480280724803800120D1E770
:100A00002DE9F84F06464FF00008C246002000903E
:100A10000EB9BDE8F88F34680CB90020F9E72078EA
:100A2000012801D00020F4E704F1080999F800003A
:100A3000312801D00020ECE7002000F059FB012212
:100A40000921032000F0E7FA00BF00F0DAFB0646B8
:100A500006B903E0304600F0DAFBF6E700BF5A487B
:100A6000076861E058480168384602F0BFFD42F26D
:100A70001071884204D9012000F03AFB0020C8E739
:100A800000F0BFFB064606B94EE034681CB930469C
:100A900000F0BDFB48E02078012803D0304600F08C
:100AA000B6FB41E004F10805B8F1000F1BD128782E
:100AB0002A2835D144480768A878022804D10122A1
:100AC000062100F0A8FA2BE0A878012828D10022FE
:100AD0000621022000F09FFA0320FFF735FD009069
:100AE0004FF001081CE0B8F1010F19D1287829282E
:100AF00016D135480768A878022804D101220721B9
:100B000000F089FA0CE0A878012809D10022072119
:100B1000022000F080FA0320FFF716FD824604E071
:100B2000304600F074FB00BF9CE700BF50460099C0
:100B3000FFF72FFFB8B103F082FBA0B1002209211B
:100B4000032000F068FA2048076800BF1E480168CB
:100B5000384602F04BFDB0F57A7FF7D3012000F064
:100B6000C7FA012055E701254FF0000B12E085F090
:100B700001052A460921032000F04DFA12480768B2
:100B800000BF11480168384602F030FD6428F8D3F0
:100B90000BF1010BBBF10A0FE9D3012000F0A8FA19
:100BA000012036E716000020FC0200202200002071
:100BB000200000201E0000201C0000202600002035
:100BC000180000201A000020FC0000202DE9F04150
:100BD000024692F8644004F00706002009E0FE4C4B
:100BE000215CFE4C34F81140FD4D55F821502C612C
:100BF000401C0A28F3D300233CE0F74FF95CF74F81
:100C000037F81170DFF8D8C35CF821C0CCF8147045
:100C1000002000E0401C2828FCD300BF00BF00BF1C
:100C20000024002013E0EF4F57F82070BF68DFF872
:100C3000B8C33CF810C007EA0C050DB1012700E06D
:100C400000273D4605FA00F72743BCB2401C0828A0
:100C5000E9D3E24F37F81170DFF884C35CF821C0A4
:100C6000CCF8107006EB860802F1140707EB480772
:100C7000FC545B1C0A2BC0D3546E641C5466BDE844
:100C8000F081F0B503460C46FF250026002118E050
:100C900000220FE001EB810003EB4000875C481C61
:100CA00000EB800003EB4000805C874201D0761CA3
:100CB00002E0521C0A2AEDDB00BF0A2A00D10D46D1
:100CC000491C0729E4DB052E01DD0020F0BD082DBD
:100CD00001DB0020FAE705EB850003EB4000076825
:100CE000276047686760008920810120EEE72DE9D1
:100CF000F05F804698F8640000F0070007287DD177
:100D0000414608F11400FFF7BCFF8346BBF1000F1A
:100D100002D10020BDE8F09FC14608F10A0A08F19F
:100D20006807002400255DE00020002119F8052057
:100D30001AF8053082EA030019F805201AF8053080
:100D400002EA030158B3002627E00122B240024024
:100D500012B3082C00DB48E0F02202EA051206F08C
:100D60000F031A4307EB84035A70A04A02EBC50233
:100D7000925D07F8242019F805200123B3401A409A
:100D800022B1022207EB84039A7003E0012207EBF1
:100D900084039A70621CD4B2761C082ED5DB01B392
:100DA00000261CE00122B2400A40BAB1082C00DB48
:100DB0001BE0F02202EA051206F00F031A4307EBCC
:100DC00084035A70894A02EBC502925D07F8242019
:100DD000EE2207EB84039A70621CD4B2761C082EB4
:100DE000E0DB6D1C0A2D9FDB00BFD9F80000CAF8BC
:100DF0000000D9F80400CAF8040000E005E0B9F8E2
:100E00000800AAF80800204684E7002082E738B5E9
:100E100003208DF8020010208DF80300002412E05A
:100E2000714830F81400ADF800006E4951F8240004
:100E3000694604F0F7FD6C4830F81400694951F830
:100E400024104861641C082CEAD300BF28208DF8C8
:100E5000030000240BE0644830F81400ADF80000F3
:100E6000604951F82400694604F0DCFD641C082C3C
:100E7000F1D300BF38BD38B503208DF80200102033
:100E80008DF8030000240BE0594830F81400ADF849
:100E90000000584951F82400694604F0C3FD641C61
:100EA000082CF1D338BD38B503208DF8020010208E
:100EB0008DF8030000240BE0484830F81400ADF82A
:100EC0000000474951F82400694604F0ABFD641C5A
:100ED0000A2CF1D300240BE0404830F81400ADF8A0
:100EE00000003F4951F82400694604F09BFD641C52
:100EF0000A2CF1D338BD002007E03D4931F810102D
:100F00003C4A52F820205161401C0828F5D3704714
:100F1000002007E0314931F81010314A52F8202002
:100F20001161401C0A28F5D37047002007E02B49C7
:100F300031F810102A4A52F820201161401C0A286A
:100F4000F5D3704710B5FFF7F0FFFFF7E1FF10BDD5
:100F50002DE9F04105460A21E868B0FBF1F201FBFA
:100F60001206AF5DFFF7C7FFFFF7D2FF00240BE0CB
:100F70000120A040384030B11D4830F814001D4910
:100F800051F824100861641C082CF1D3134830F880
:100F90001600134951F826104861701CE860BDE83E
:100FA000F08110B5FFF733FFFFF765FFFFF77BFF19
:100FB000FFF7C8FF8821104808F00CFB0F480021FC
:100FC000016041608160C1600A210D4808F002FBA8
:100FD0000C480021016017E0C898000884980008B8
:100FE0005C9800082C9800084C98000845000020E8
:100FF000B8980008989800080C030020940300207B
:10100000A4030020AE030020416001810A2163484F
:1010100008F0E0FA10BD30B50B4600F007000A24D6
:10102000B3FBF4F504FB15335D4CE1182AB10C78E1
:10103000012585402C430C7004E00C780125854087
:10104000AC430C7030BD10B5024602F007020A2016
:10105000B1FBF0F400FB14115148435C01209040B7
:10106000184008B1012010BD0020FCE730B50B4648
:1010700000F007000A24B3FBF4F504FB1533494CD8
:10108000E1182AB10C78012585402C430C7004E04E
:101090000C7801258540AC430C7030BD10B542483A
:1010A00001684248006802F0A1FAB0F5FA7F1ED943
:1010B00000210FE03A4B58183A4B5A5C4AB13C4B6E
:1010C0001B781BB103781343037002E0037893434A
:1010D0000370491C0A29EDD3334B1B68334C236042
:1010E000334B1B7883F00103314C237000BF10BDDC
:1010F00070B50446002504B1FF250A21294808F0EF
:1011000069FA2A460A21264808F03AFA70BD10B555
:101110000A222449214808F001FA264820490A6891
:1011200002604A6842600989018110BD10B50A2237
:101130001A491C4808F0F2F919481E490A68026069
:101140004A6842600989018110BD10B58AB016480D
:10115000007800F00100D0B90024FFF7CCFE16485B
:10116000FFF734FD1448FFF7C2FD0446002C0DDDE7
:10117000019401208DF80000A2000F49683102A8F7
:1011800008F0CCF9684600F049F800BF00BFFFF74F
:1011900085FF0348FFF7DCFE0AB010BDB80300204E
:1011A00094030020A4030020FC0000204000002045
:1011B00044000020AE0300200C03002010B50323E0
:1011C00008222449244802F0FDFB002416E00020F8
:1011D00004EB44011F4A02EBC101087204EB8400D6
:1011E0001E4901EBC00004EB440142F83100282005
:1011F00004EB440102EBC1014860641C082CE6D3F7
:1012000010BD10B50121144802F05FFC10BD10B5EF
:1012100004462146104802F08FFC10BD70B504460C
:10122000002504B970BD0C4802F00CFC054675B1F0
:1012300028222146286808F02CF901222946064870
:1012400002F017FC18B12946034802F075FC00BFF4
:10125000E8E7000004050020C4050020C4030020C6
:101260000EB50025FFF7AAFF01F0A1F802F0F6F98C
:1012700002F0FEF902F089FF00F021F903F0F9F91C
:10128000FFF78FFE0020FFF733FFFFF750F903F061
:10129000BBF802F0F3F901F09BF803F0F7FA012034
:1012A000FFF726FF4F48D0F8008024E0FFF7A9FFA2
:1012B000044694B1204601F0A6F818B14948D0F888
:1012C00000800AE02046FFF79BFB18B14548D0F8A4
:1012D000008002E02046FFF79AFF0120FFF708FF99
:1012E00040480168404602F081F941F28831884265
:1012F00000D901E000BFD9E700BF0120FFF7F8FEE9
:1013000000252AE0002400263648D0F800806C46EC
:101310000020206060602081AA2020700720A0703B
:10132000C020E070204600F025FE0821204600F095
:10133000CFFE002000F0D8F806461EB1304600F07F
:1013400074F90CE06D1C00BF26480168404602F0AD
:101350004DF9B0F57A7FF7D300BF032DD2D300BF8C
:101360000020FFF7C5FE01F022F800BFFFF749FF9C
:10137000044604B903E02046FFF749FFF6E700BF43
:101380002EE0002000F0B0F80446FFF73AFF0646D2
:10139000002003F082F98146002003F0EEFA0746B0
:1013A00016B1304601F028FE3CB10F49204600F04E
:1013B00098FE10B1204602F0E2F817B1384602F06C
:1013C000DEF83046FFF723FF204600F02EF94846AE
:1013D00003F003FA384603F071FB01F0CEFD00BFC5
:1013E000CFE70000FC000020D498000800B587B0CB
:1013F0000121880304F038FE03A805F053FE4FF4E2
:101400001650039003A9AA4805F0E3FD0121A8485E
:1014100005F06BFE4FF40070ADF8080003208DF866
:101420000A0018208DF80B0002A9A24804F0FAFA6D
:101430004FF48060ADF8080004208DF80B0002A97D
:101440009C4804F0EFFA25208DF8040004208DF864
:10145000050000208DF8060001208DF8070001A886
:1014600003F059FB012240F22551914805F049FE55
:101470000121084604F0EBFD43F290008E494864D8
:101480008B48001DC8640020886408650122802103
:10149000874805F05BFE07B000BD38B58448048876
:1014A00004F0200050B18248001D0088C0B20090B6
:1014B00001226946814802F071FB00BF38BD10B5BA
:1014C000002310227E497F4802F07CFA80227E4968
:1014D0007A4802F045FB4FF480627C497C4800F07A
:1014E000FDF8FFF783FF10BDF0B585B0054600BFDE
:1014F00000270020049004A9704802F097FB0746DB
:1015000007B92BE027E0002600200390029000247A
:1015100002A903ABCDE9001039466D48049A00F0EA
:10152000EFF8064606B917E0664802F08BFA044663
:1015300014B9304607F03BFF266003986060012035
:1015400020720298A072012221465E4802F091FAB0
:101550000020049000BFD6E700BF00BF00BF00BF5F
:1015600000245C480078E8B15348006800F400505B
:1015700010B905B149E049E04D48008800F040004D
:1015800010B905B141E041E04FF480504A4948604C
:101590005148007A18B15049086807F008FF002048
:1015A0004C4908700021474802F08FFA04465CB3AA
:1015B0006068002801DD206848B9207A20B12068E1
:1015C00010B1206807F0F3FE05B11EE01EE03A48B6
:1015D000406C20F0010038494864606888642068E5
:1015E00008650846406C40F0010048640120394914
:1015F000087018222146384807F090FF21463148EC
:1016000002F09AFA05B100E000E0A9E700BF00BFD0
:10161000002401212B4802F058FA044614B1204658
:1016200005B0F0BD00BF0020FAE710B5044644B194
:10163000207A10B1206807F0BAFE2146214802F056
:101640007BFA10BD2DE9F04105460E4690461F4637
:10165000002415B9601EBDE8F0811A4802F0F2F9C5
:10166000044614B94FF0FF30F5E725606760267235
:1016700000222146134802F0FCF90020EBE710B5E8
:1016800004461CB121460F4802F056FA10BD4FF433
:101690008060704710B5044604B910BD0020A081D9
:1016A0000C2060812146024805F093FC00BFF4E75E
:1016B000003801400008014000000240EC07002013
:1016C000D8050020580700206C07002004080020DF
:1016D000040C0020950000201C0C002070B504466E
:1016E0000E4615460CB106B115B94FF0FF3070BD6E
:1016F0001821204607F06EFF266065600020F6E79F
:101700002DE9FF4F8DB0044691469A46DDF868807A
:10171000002700200C9014B1BAF1000F03D14FF054
:10172000FF300C9023E221696068401A484502D2DC
:101730004FF0FF300C90B9F1000F2ED00E9818B971
:101740004FF0FF300C90EDE7A06800EB09066068F1
:10175000B04214D2D4E90101451AA2682168881860
:101760002A460E9907F095FEA9EB05020E9B591922
:10177000206807F08EFEA9EB0500A06009E0A268D2
:10178000216888184A460E9907F083FEA0684844ED
:10179000A06020694844206100BF00BF00200B907A
:1017A0000025BDE3E06828440A9061680A98B0FB10
:1017B000F1F201FB12000A9021680A98085C099076
:1017C0000998AA287DD10026002008902069401B96
:1017D00007900798072806DB606928B1A08AC0F344
:1017E0000726207D089085E0E26850192168821C58
:1017F0006368B2FBF3FC03FB1C228A5C042A78D1E9
:10180000C21C6368B2FBF3FC03FB1C228A5C002A47
:101810006FD1421D6368B2FBF3FC03FB1C228E5C9C
:10182000821D6368B2FBF3FC03FB1C228A5C0892F6
:10183000079A082A5DDBD4F80CC0AC44CDF818C078
:1018400005F1070CD4F80CB00CEB0B034FF0000CB7
:10185000CDF814C0069A10E0D4F804C0B2FBFCFB2B
:101860000CFB1B2CD4F800B01BF80CC0DDF814B036
:101870008CEA0B0CCDF814C0521C9A42ECD3D4F86D
:1018800004C0B3FBFCFB0CFB1B3CD4F800B01BF802
:101890000CC0CDF810C0DDE904CBE3451BD005F149
:1018A000010CD4F810B0ABEB0C0CC4F810C005F16F
:1018B000010CD4F80CB0DC44C4F80CC0D4F80CC053
:1018C00000E03FE1D4F804B0BCFBFBFE0BFB1ECCF8
:1018D000C4F80CC028E3F6B2DDF820C00CF0FF0C11
:1018E000CDF820C0DDF820C00CEB062CC4F814C0E5
:1018F00000BF00BFF6B20898C0B20890089800EB8D
:10190000062608366068B6EB500F11D9681C2169AD
:10191000081A2061681CE1680844E0606168E068BA
:10192000B0FBF1F201FB1200E0600020606108E111
:101930000798864275DC082E75D100200690019626
:10194000019807F005FD07461FB94FF0FF300C90D6
:1019500007E30597E06828440390701E2844E16877
:10196000084402900398049015E061680498B0FB65
:10197000F1F201FB1200216811F800B0069880EA2C
:101980000B000690059880F800B00598401C059063
:101990000498401C0490029904988842E5D3616839
:1019A0000298B0FBF1F201FB1200216811F800B0BF
:1019B000069858451FD101200B90059880F800B07B
:1019C000216901982844081A2061E06841190198AA
:1019D0000844E0606168E068B0FBF1F201FB1200CE
:1019E000E0600198CAF80000B8F1000F18D001209B
:1019F000C8F8000014E0384607F0D9FC0027681C3E
:101A00002169081A2061681CE1680844E060616887
:101A1000E068B0FBF1F201FB1200E06000206061C1
:101A20008FE07FE0FFE70596059807F091FC0746F9
:101A30001FB94FF0FF300C9093E2E06828446168D2
:101A4000B0FBF1F201FB120B7019E1680844616808
:101A5000B0FBF1F201FB120006900698584507D939
:101A6000206800EB0B013246384607F012FD11E00A
:101A70006068A0EB0B000290206800EB0B01384679
:101A8000029A07F006FD029BF21AF818216807F087
:101A900000FD00BF00206061A6F10A0081B207F1DD
:101AA000080001F0ABFE049000200390B819811EDD
:101AB000022203A801F07EFEBDF80C1004988142BA
:101AC0001CD101200B90216905982844081A206137
:101AD000E068411905980844E0606168E068B0FB7F
:101AE000F1F201FB1200E0600598CAF80000B8F1BD
:101AF000000F16D00120C8F8000012E0384607F0A9
:101B000056FC0027681C2169081A2061681CE168DE
:101B10000844E0606168E068B0FBF1F201FB12008C
:101B2000E0600EE02069401B2061E0682844E0602E
:101B30006168E068B0FBF1F201FB1200E060012097
:101B40000B90F1E10998FA2870D12069A0EB050B00
:101B5000BBF1070F6BDB0020089007200390039870
:101B600007F0F6FB07461FB94FF0FF300C90F8E185
:101B70003E46E06828440590A81DE16808440490AA
:101B8000059806900FE060680699B1FBF0F200FB43
:101B900012102168085C07909DF81C0006F8010BE4
:101BA0000698401C0690049906988842EBD30220C0
:101BB000069009E00698385C9DF820100844C0B2F1
:101BC00008900698401C069006980628F2D3606894
:101BD0000499B1FBF0F200FB12102168085C079039
:101BE0009DF820009DF81C10884221D101200B9007
:101BF0009DF81C003070206903992944401A206127
:101C0000E068284403990844E0606168E068B0FB3C
:101C1000F1F201FB1200E0600398CAF80000B8F18D
:101C2000000F18D00520C8F8000014E024E013E0ED
:101C3000384607F0BCFB0027681C2169081A2061A0
:101C4000681CE1680844E0606168E068B0FBF1F29C
:101C500001FB1200E0600EE02069401B2061E0689B
:101C60002844E0606168E068B0FBF1F201FB12001B
:101C7000E06001200B9057E1099800F0F000802807
:101C800079D12069401B08900898032874DBE0682C
:101C900028440790D4E9031000EB010B00200690C4
:101CA0000798861C0DE06068B6FBF0F100FB116040
:101CB0002168085C06900698FF2801D1B34602E02F
:101CC000761C5E45EFD300BF0698FF2855D10798D4
:101CD000ABEB0000401C102810D90027681C2169BC
:101CE000081A2061681CE1680844E0606168E068E7
:101CF000B0FBF1F201FB1200E06063E00798ABEB90
:101D00000000401C0490049807F022FB07461FB90E
:101D10004FF0FF300C9024E1059701200B90079EB7
:101D20000CE06068B6FBF0F100FB11612068415CDB
:101D3000059801700598401C0590761C5E45F0D909
:101D4000216904982844081A2061E0684119049820
:101D50000844E0606168E068B0FBF1F201FB12004A
:101D6000E0600498CAF80000B8F1000F02D0042027
:101D7000C8F8000026E036E025E00798ABEB00004D
:101D8000102810D30027681C2169081A2061681CDC
:101D9000E1680844E0606168E068B0FBF1F201FBD3
:101DA0001200E0600EE02069401B2061E0682844DA
:101DB000E0606168E068B0FBF1F201FB1200E060F6
:101DC00001200B900EE02069401B2061E068284450
:101DD000E0606168E068B0FBF1F201FB1200E060D6
:101DE00001200B90A0E00998A52871D12069A0EBF3
:101DF000050BBBF10B0F6CDB002008900B20039050
:101E0000039807F0A5FA07461FB94FF0FF300C9072
:101E1000A7E03E46E0682844059005F10A00E16825
:101E200008440490059806900FE060680699B1FB9D
:101E3000F0F200FB12112068405C07909DF81C0036
:101E400006F8010B0698401C0690049906988842F3
:101E5000EBD30120069009E00698385C9DF820102D
:101E60000844C0B208900698401C069006980A28BC
:101E7000F2D360680499B1FBF0F200FB1210216804
:101E8000085C07909DF820009DF81C10884221D125
:101E900001200B909DF81C003070206903992944A3
:101EA000401A2061E068284403990844E0606168B2
:101EB000E068B0FBF1F201FB1200E0600398CAF8A1
:101EC0000000B8F1000F18D00620C8F8000014E098
:101ED00024E013E0384607F06AFA0027681C2169FD
:101EE000081A2061681CE1680844E0606168E068E5
:101EF000B0FBF1F201FB1200E0600EE02069401B34
:101F00002061E0682844E0606168E068B0FBF1F2BD
:101F100001FB1200E06001200B9005E000BF6D1C8A
:101F20002069A8423FF63EAC00BF2069A8420FD10D
:101F30000B9868B900202061E0682844E06061687F
:101F4000E068B0FBF1F201FB1200E060002060618C
:101F50000B9800B103E0206900283FF71FAC00BFD9
:101F600000BF1B9810B11B990C980860384611B03F
:101F7000BDE8F08F10B501460B78FD4C24680CB11C
:101F8000092200E00722012002E00C5C6340401CB3
:101F90009042FADB0B5410BD2DE9FF4381B0884617
:101FA000DDF830900024B8F1000F03D1002005B017
:101FB000BDE8F083DDE9030100FB01F707F110063E
:101FC000304607F0C5F904460CB90020EFE731466A
:101FD000204607F0DDFAAA2020700420A07000201F
:101FE000E070A6F10800009002226946601D01F031
:101FF000E1FB2046FFF7BEFF04F10805022201A91C
:10200000284601F0D7FB022203A9A81C01F0D2FB4D
:10201000022204A9281D01F0CDFB3A464146A81D25
:1020200007F037FAB81D81B2284601F0E7FB0090AF
:10203000A91DC8190222694601F0BCFBB9F1000FC5
:1020400001D0C9F800602046B1E7F8B506460F4652
:1020500014461D4623460122394630460095FFF7B7
:102060009BFFF8BD70B505460C46ADB1A4B1204646
:1020700007F06EF9064676B122462946304607F04B
:1020800008FA2346032201213046FFF7DBFA10B19C
:10209000304607F08CF900BF70BD70B505460C46A0
:1020A000ADB1A4B1204607F053F9064676B12246F9
:1020B0002946304607F0EDF9234603220121304638
:1020C00002F0A2FB10B1304607F071F900BF70BDFD
:1020D00070B504460D4629462046FFF7C3FF70BD84
:1020E00070472DE9F04F8FB007460C4601200E9047
:1020F0001FB9801E0FB0BDE8F08F3D682878AA2870
:1021000002D04FF0FF30F5E7A8780C287AD1E878B4
:10211000802878D100200C900D9000260B904FF075
:1021200001094FF0010A8346AA208DF830000C20E7
:102130008DF8320080208DF8330001208DF83400B6
:10214000A8790D2860D2DFE800F05F0708165F2449
:102150005F5F5F385F3A4B0000BFA8798DF83600AB
:10216000082007F0F5F8064616B94FF0000950E0D0
:1021700008200B904DE008A801F023FE4FF0000A64
:102180000BAB0C2208A948F20300FFF75EFF0646DE
:102190003FE000200A902CB1206918B120698047E7
:1021A00080B20A904FF0000A0BAB02220AA948F253
:1021B0000500FFF74AFF06462BE001F0F9F94FF062
:1021C000FF300A9001F008FE0A904FF0000A0BABB6
:1021D00004220AA948F20B00FFF737FF064618E071
:1021E0000FF290184FF0000A404607F033F9401CF8
:1021F0000BAB024641460A9048F20C00FFF725FF60
:10220000064606E030E0CBE04FF0000900200E90DB
:1022100000BF00BFB9F1000F20D0FEB1BAF1000F2E
:1022200006D00CA8FFF7A6FE0C9830600D987060E1
:102230001CB9304607F0BBF810E0606918B93046A9
:1022400007F0B5F80AE0D4F814C0032201213046A3
:102250000B9BE04710B1304607F0A9F8BBF1000F27
:1022600001D001F0A5F99BE0A87804287ED10020D8
:102270000D9080460E900222691D0DA801F09AFA79
:1022800005F108060D98801E0D9082E04FF00009C0
:1022900000200C904FF0010A0B900A900990022246
:1022A00031460BA801F086FA0222B11C0AA801F0FF
:1022B00081FA0222311D09A801F07CFABDF82C0038
:1022C000A0F500400A3858BB06F1060B01A801F042
:1022D00078FD4FF0FF3001F07FFD0090012301A950
:1022E00004A8009A01F09EFD1022594604A807F0A8
:1022F00085F838B9002008900022012104A801F0D7
:10230000B7FD02E04FF0FF3008900CAB042208A9A3
:1023100048F20A00FFF799FE814601200E9000E086
:1023200000BF00BFBAF1000F18D0B9F1000F15D0EF
:102330001CB9484607F03BF810E0606918B94846F8
:1023400007F035F80AE0D4F814C00322012148460A
:102350000C9BE04710B1484607F029F8BDF828006B
:10236000BDF824104843801D80440DE016E00000B5
:102370000001002059415F53425F4B45595F3031A6
:102380005F3137313130370005F1080000EB0806C6
:1023900000BF0D988045FFF479AF01E000200E905A
:1023A0000E9808B10020A5E64FF0FF30A2E600200D
:1023B000F94908700120F94908700020F8490870AF
:1023C000F8490870F84908700120F849087070470A
:1023D00070477047704701460022012003E00B5C04
:1023E0001344DAB2401C0628F9DB0A547047014650
:1023F0000022012003E00B5C1344DAB2401C0A28DF
:10240000F9DB0A5470472DE9FC470746E8A000684D
:102410000190E848006800904FF0000817B90020CC
:10242000BDE8FC873C680CB90020F9E7207801285A
:1024300001D00020F4E704F108052878192801D01C
:102440000020EDE70020FEF753FEDB48D0F800A0A7
:102450007AE0002C51D004F10805B8F1000F16D134
:102460002878192849D1D448D0F800A0A8780228A3
:1024700008D10020FEF73CFE012204210020FEF7D7
:10248000CAFD3AE0A878012837D1804635E0B8F196
:10249000010F32D14FF0FF364FF0000909E02878E4
:1024A00001A911F80910884201D14E4604E009F152
:1024B0000109B9F1020FF2D300BF701CE0B1BE48B0
:1024C000D0F800A0A878022808D11DF816103DF811
:1024D0001620100A0122FEF79EFD0DE0A8780128C3
:1024E0000AD11DF816103DF81620100A0022FEF73A
:1024F00092FD06F1020828E000BF3846FEF787FE8D
:102500000027AD480168504601F070F841F288316B
:10251000884204D90020FEF7EBFD002080E700246C
:10252000FEF76FFE074607B90EE03C681CB9384657
:10253000FEF76DFE08E02078012804D0002438461C
:10254000FEF765FE00E000BF83E700BF3846FEF7F8
:102550005EFEB8F1020F44D3B8F1020F03D0B8F118
:10256000030F08D103E001209449087004E006201D
:102570009249087000E000BF00BF01F060FEA0B10A
:102580008D48D0F800A00120FEF7B2FD00BF8A48B8
:102590000168504601F02AF840F2DC518842F6D337
:1025A0000020FEF7A5FD01203AE701264FF00009C3
:1025B00013E086F00106324604210020FEF72BFDD1
:1025C0007D48D0F800A000BF7B480168504601F06C
:1025D0000DF86428F8D309F10109B9F10A0FE8D31D
:1025E00000BF0020FEF784FD002019E7F8B507467C
:1025F0000E4673A00068009000242CE0002527E020
:10260000042000FB045047FA00F000F0010050B134
:10261000601C1DF800006A00012191400843C1B20E
:10262000601C0DF80010042000FB045046FA00F076
:1026300000F0010058B1601C1DF80000012101EB01
:10264000450291400843C1B2601C0DF800106D1C9A
:10265000042DD5D3641C022CD0D39DF800009DF826
:10266000011048409DF8021048408DF803000421F5
:102670006846FFF712FDF8BD2DE9F04104460D460E
:1026800016461F46072C01DDBDE8F08116B100207B
:102690004C4908703DB14B4800780121A1400843E6
:1026A0004849087006E0474800780121A140884366
:1026B0004449087027B1434A51781078FFF796FFD4
:1026C00000BFE1E72DE9F04104460D4616461F46DE
:1026D000072C01DDBDE8F08116B1002039494870B2
:1026E0003DB1384840780121A14008433549487040
:1026F00006E0344840780121A140884331494870C0
:1027000027B1304A51781078FFF770FF00BFE1E73A
:102710002DE9F04707464FF0000801E107F10800F6
:1027200000EB8806B078EE2800D1F7E03578264C2B
:102730000020206060602081AA2020701648007868
:1027400060700720A070B078012800D12071332D6F
:1027500070D2DFE805F0D91A1B1C3B3C3D434445D1
:102760004647484E4F50515253595A5B5C5D5E6428
:1027700065666768697071727374757B7C7D7E8431
:102780009EB8B9BABBBCBDC3C90000BF00BF4720DB
:10279000E070681C6071B8E098000020990000208B
:1027A000140000209A0000209B0000209D000020C3
:1027B0000D0E00007C990008FC0000209E00002007
:1027C000FC0000009F000020340C002000BF00BF70
:1027D0004C20E07005F17C00607196E000BF00BF06
:1027E00000BF00BF00BF4C20E07005F189006071A0
:1027F0008BE000BF00BF00BF00BF00BF4820E070FB
:10280000A5F10B00607180E000BF00BF00BF00BFFA
:1028100000BF4820E07005F16D00607175E000BFF9
:1028200000BF00BF00BF00BF4820E070A5F111004D
:1028300060716AE068E000BF00BF00BF00BF00BF7A
:102840004820E07005F1710060715EE000BF00BFDC
:1028500000BF4420E070A5F12500607155E0B0781C
:1028600002280ED101220721FEF7D5FBA5F1280091
:1028700000F0FF094FEA0970000EE0700F20A07110
:1028800006E000202071002207210220FEF7C3FB92
:102890003BE0B07802280ED101220621FEF7BBFBF7
:1028A000A5F1280000F0FF094FEA0970000EE07062
:1028B0000F20A07106E000202071002206210220D6
:1028C000FEF7A9FB21E000BF00BF00BF00BF00BFB3
:1028D0004820E070A5F11D00607116E04820E0700E
:1028E000A5F13100607110E04820E070A5F13100E1
:1028F0006071207908B9012000E00020024608211B
:102900000320FEF788FB00E008E000BF2046FFF749
:1029100031FB08212046FFF7DBFB00BF08F101086F
:10292000786840453FF6FAAE0120BDE8F0877FB5F4
:102930000446FE48007810B9002004B070BDFC4D7C
:102940000020286068602881AA202870F948007853
:1029500068700720A870207AE870A07A2871207B20
:102960006871A07BA871F448007818B1287940F00C
:10297000400028712846FFF7FDFA08212846FFF796
:10298000A7FBEE48007808B90120D6E7EC480078AC
:1029900002281ED1FF208DF80800E6480078401C70
:1029A000C0B28DF8090000208DF80A00207A400698
:1029B000000E8DF80B00A07A8DF80C00207B8DF8AE
:1029C0000D0002A8FFF707FD072102A8FFF788FB0B
:1029D0001FE1207A4006020E02F07E02D548007800
:1029E0008130C0B28DF80000D648007860B902F09E
:1029F0001E0018B10120D349087005E002F0600004
:102A000010B10220CF490870CE480078012828D1A3
:102A1000CD48007850B302F01E0038BB01208DF87D
:102A2000010006208DF8020001208DF8030000202F
:102A30008DF804008DF8050003208DF806008DF850
:102A40000700FF208DF8080009216846FFF748FBC2
:102A50000020BD49087002F0400018B10220B949B9
:102A6000087060E00020B74908705CE001208DF834
:102A7000010006208DF8020001208DF8030002F00D
:102A80000600D8B16189C1EBC10303EB01103F21FE
:102A9000B0FBF1F01821B0FBF1F301FB1300401C77
:102AA000C1B28DF8041002F0040119B101218DF8B2
:102AB000061002E002218DF8061005E000208DF8D6
:102AC000040003208DF8060002F01800D8B1A18997
:102AD00001EB410303EB01103F21B0FBF1F01421A6
:102AE000B0FBF1F301FB1300401CC1B28DF80510DF
:102AF00002F0080119B101218DF8071002E002214E
:102B00008DF8071005E000208DF8050003208DF8F2
:102B10000700FF208DF8080009216846FFF7E0FA5A
:102B20000120894908708748007802286CD18748BD
:102B30000078D8B102F06000C0B901208DF8010022
:102B400004208DF8020007208DF8030000208DF886
:102B50000400FF208DF8050006216846FFF7C0FA43
:102B600000207A490870774908704DE002F0400073
:102B7000402824D1E08900EB80030F20B3FBF0F361
:102B80000620B3FBF0F100FB11339B1C01208DF8F4
:102B9000010004208DF8020007208DF8030003F1E6
:102BA0003000C0B28DF80400FF208DF8050006212A
:102BB0006846FFF795FA01206449087024E0E0892F
:102BC00000EB80030F20B3FBF0F30620B3FBF0F122
:102BD00000FB11339B1C01208DF8010004208DF8AF
:102BE000020007208DF8030003F12000C0B28DF829
:102BF0000400FF208DF8050006216846FFF770FAF3
:102C000001205249087000BF12B900204D490870D8
:102C100000BF012091E670B50546454C0CB9002077
:102C200070BD0020206060602081AA202070414893
:102C3000007860700720A0708020E070207940F05C
:102C400080002071287A60712046FFF793F90821EF
:102C50002046FFF73DFA0120E2E770B50546344C07
:102C60000CB9002070BD0020206060602081AA2087
:102C700020703048007860700620A0708020E070DE
:102C8000287A6071A0712046FFF774F90821204668
:102C9000FFF71EFA0120E5E72DE9F04100243EE0B0
:102CA000002639E02A4800EB041030F816704FF681
:102CB000FF70874200D12EE02648005D304100F0D1
:102CC0000108B8F1000F05D0F9B2380A0122FEF769
:102CD000A2F904E0F9B2380A0022FEF79CF906EBEB
:102CE000C4050C2D0ADB182D08DAA5F10C01C8B2B9
:102CF00000231A464146FFF7BFFC0BE0182D09DB05
:102D0000242D07DAA5F11801C8B200231A4641465E
:102D1000FFF7D8FC00BF761C082EC3D3641C082C18
:102D2000BED30D4A5178107818E000009D000020B5
:102D3000340C0020980000209C0000209900002006
:102D40009E000020F6000020F5000020F400002086
:102D5000FC980008D50000209F000020FFF746FCEB
:102D6000BDE8F0812DE9F0410546FC4C0027002626
:102D70003AE005F1080C0CEB86010020002391F8E5
:102D800002C0BCF1EE0F00D12DE00A78A2F1010CD7
:102D90000CF0FF02D01002F00703082800DB22E04D
:102DA000012791F802C0BCF1020F0DD1DFF8B0C3CA
:102DB0001CF800C0B84608FA03F84CEA080CDFF823
:102DC000A08308F800C00DE0DFF894C31CF8008071
:102DD0004FF0010C0CFA03FC28EA0C08DFF880C362
:102DE0000CF8008000BF761C6868B042C1D8D7B12B
:102DF000FF20207004206070D9480168C4F80210D8
:102E00004068C4F80600D748D5490A680260496896
:102E100041600120D44908702046FFF7E8FA0B21F1
:102E20002046FFF755F90120BDE8F0812DE9F0417A
:102E30000746CA4C002500260020206060602081E3
:102E4000A0723E7A7D8906F0020030B14FF4007026
:102E500000EBC500C01D85B209E006F0010020B1FD
:102E6000072000EBC50085B201E04FF40075FF209C
:102E7000207001206070A5702812E070BD8906F0F6
:102E8000040030B14FF4007000EBC500C01D85B2E6
:102E900009E006F0080020B1072000EBC50085B26C
:102EA00001E04FF400752812207165714FF4007530
:102EB0002812A071E571A078AA490B390870E07852
:102EC0004870607988702079C8700120A649087020
:102ED0002046FFF78CFA0B212046FFF7F9F8012076
:102EE000BDE8F08170B505469C4C00202060606014
:102EF0002081A072FF20207003206070A57028122E
:102F0000E07098490B398D7101209749087020466F
:102F1000FFF76DFA0B212046FFF7DAF870BD10B508
:102F20000446218988B2FFF7DDFF012010BD70B58E
:102F300006468A4C308985B200202060606020817E
:102F4000A072FF2020700220607064206843772107
:102F500090FBF1F085B2A5702812E07081490B3921
:102F60008D720120804908702046FFF740FA0B213E
:102F70002046FFF7ADF8012070BD00B587B001F025
:102F8000B1FC002836D0142102A806F023FB7748B4
:102F9000006801907448007890B1132271490B3990
:102FA0000DF1050006F075FA142101A801F0C5FC29
:102FB00000206D4908706E4800686E49086018E08E
:102FC0006B4801686B48006800F010FB42F210711A
:102FD00088420ED9132263490B390DF1050006F022
:102FE00058FA142101A801F0A8FC61480068614961
:102FF000086000BF07B000BD70B505462C6820789A
:10300000052801DB002070BD20785B4951F82000C5
:1030100088B15A480078012806D120780A4652F82B
:10302000201020468847EEE72078554A52F82010B5
:1030300020468847E7E70020E5E72DE9F04105460F
:103040000E461746002409E015F8141035F8142030
:10305000100A3A46FDF7DFFF601C84B2B442F3DB8E
:10306000BDE8F0812DE9F04190B006461EB901207F
:1030700010B0BDE8F0813468E778A07908B9012084
:1030800000E000208046A078062801D10120EFE76B
:103090003846492F61D008DCA0F14400052871D2E0
:1030A000DFE800F01028292A48004C286BD004DC07
:1030B0004A2869D04B2865D158E1802865D0C028BE
:1030C000F9D1A0E12949091D03C9CDE90E016079B3
:1030D00004280EDA002204210EA8FFF7AEFF627961
:1030E0000EAB13F8121033F81220100A4246FDF707
:1030F00092FFD5E1D4E1D3E11C490C3103C9CDE9FC
:103100000E016079052814DC6079022811DB0022A9
:1031100003210EA8FFF791FF6279921E0EAB13F800
:1031200012106279921E33F81220100A4246FDF7FF
:1031300072FFB5E118220D4914310AA806F0EEF924
:1031400018220A492C3104A806F0E8F96579102DF7
:1031500074D025DC102D72D218E005E13E0C002061
:10316000CD000020C3000020CC0000208099000882
:10317000FC000020F8000020A40000209E00002099
:10318000E00000208AE1F2E0EFE03BE1DFE805F05B
:103190002DE933343536373858595A5B5C5D8081B8
:1031A000842D70D010DC802D6ED006DC112D72D0F5
:1031B000122D71D0132D42D16FE0812D67D0822D59
:1031C0007ED0832DF7D189E0922D7AD006DC852D33
:1031D00078D0902D77D0912DEDD1A0E0932D73D0A4
:1031E000942D72D0952DE6D19DE042460921032011
:1031F000FDF711FFB6E000BF00BF00BF00BF00BF7A
:1032000000220C210AA8FFF718FF6279921E0AAB70
:1032100013F812106279921E33F81220100A4246F7
:10322000FDF7F9FE2079012807D16179891EC8B21E
:1032300001231A464146FFF71FFA93E02AE090E087
:1032400000BF00BF00BF00BF00BF00220C2104A8C8
:10325000FFF7F3FE6279083A04AB13F812106279B3
:10326000083A33F81220100A4246FDF7D4FE2079BE
:10327000012807D161790839C8B201231A464146AD
:10328000FFF720FA6EE02AE025E004E004E023E006
:1032900000BF00BF00BF00BF00BFCC4A07CA01ABE0
:1032A00007C30022062101A8FFF7C7FE62790E3A84
:1032B00001AB13F8121062790E3A33F8122005E0D0
:1032C0000BE02DE00CE029E02BE02BE0100A424659
:1032D000FDF7A1FE46E000BF00BF00BF00BF00BF7A
:1032E00000220C210AA8FFF7A8FE62797A3A0AABFD
:1032F00013F8121062797A3A33F81220100A424613
:10330000FDF789FE2079012807D161797A39C8B2A1
:1033100001231A464146FFF7AFF923E000BF00BF83
:1033200000BF00BF00BF00220C2104A8FFF785FEEC
:1033300062798A3A04AB13F8121062798A3A33F848
:103340001220100A4246FDF766FE2079012807D1B7
:1033500061798A39C8B201231A464146FFF7B2F9AA
:1033600000E000BF00BF9BE09AE099E098E065793B
:10337000912D2BD008DC802D0FD0812D0ED0822DE9
:103380000DD0902D3CD120E0922D20D0932D1FD038
:10339000942D1ED0952D33D11CE000BF00BF8B496A
:1033A0000C3103C9CDE90E01002203210EA8FFF75D
:1033B00044FEA5F180020EAB13F8121033F8122070
:1033C000100A4246FDF727FE1AE000BF00BF00BF0B
:1033D00000BF00BF7D4A143207CA0DAB07C30022ED
:1033E00006210DA8FFF729FEA5F190020DAB13F8F9
:1033F000121033F81220100A4246FDF70CFE00BFEF
:1034000000BF4DE04CE06079012846D1A07920B1A1
:1034100002281DD003283DD120E06D4D0DB90020BC
:1034200026E60020286068602881AA202870694864
:10343000007868700720A870C020E87001206871CB
:103440002846FEF797FD08212846FEF741FE23E0B7
:103450000020FDF74DFEFEF7AAFF1DE05C4D0DB903
:10346000002005E60020286068602881AA202870D6
:103470005848007868700720A8708020E870FDF731
:1034800093F968712846FEF775FD08212846FEF776
:103490001FFE01E00020EBE500BF01E00020E7E5B2
:1034A00000BF0120E4E52DE9F04106464A4C16B97B
:1034B0000020BDE8F0810B220021204606F060F8D4
:1034C00037687D78E81F09283DD2DFE800F005065F
:1034D00010113C3C233C360000BF4048D7F8021096
:1034E0000160D7F806104160FFF7D6FB2CE000BF63
:1034F000FF202070657039480168C4F802104068E8
:10350000C4F806002046FEF772FF0B212046FEF7A6
:10351000DFFD19E0FF20207065701120A0700B20E6
:10352000E07007202071012060712046FEF75FFFE8
:103530000B212046FEF7CCFD06E0FDF715FA80468C
:10354000FFF7D0FC00E000BF00BF0120B1E770B57D
:1035500005460DB9002070BD2C68641C2078F52844
:1035600002D02078F62808D11C48D4F80110016058
:10357000D4F805104160FFF78FFB0120EBE710B591
:103580000446A07A012803D12046FFF76BFD10BD49
:10359000A07A062803D12046FFF785FFF7E7A07A37
:1035A000072803D12046FFF7D2FFF0E70020EEE71F
:1035B0000B48006800F4E0600A490843001D084910
:1035C0000860BFF34F8F00BFFEE70000C4990008FA
:1035D000340C0020980000203E0C0020D500002074
:1035E0000CED00E00000FA0500BFFEE70246914244
:1035F00001D3881A7047C2F1FF300844FAE710B5CA
:10360000FDF7A3FD00F05AFF1248007800F00F000C
:103610000F2818D11048007800F0030414B9FDF702
:103620002CF90AE0012C02D1FDF73BF905E0022C50
:1036300003D0032C01D1FDF79AF907480078401C0C
:103640000549087000BF03480068401C0149086034
:1036500010BD0000FC0000200401002010B5012175
:10366000080702F00EFD01217D2002F0FDFC10BDD7
:1036700010B50121474802F0A6FA10BD30B5464802
:1036800000684FF47A72B0FBF2F1B1F1807F00D3A1
:103690001DE021F07F40401E4FF0E02250615017A6
:1036A0000F22002807DA13071D0E3C4B00F00F0411
:1036B000241F1D5503E013071C0E394B1C5400BF7B
:1036C00000204FF0E02290610720106100BF30BD64
:1036D00010B586B004460121880402F0D2FC002116
:1036E000304803F002FD02A803F0DCFC029402A9BA
:1036F0002C4803F06EFC01212A4803F0F6FC4FF43D
:103700008060ADF8040003208DF8060018208DF8C5
:10371000070001A9244802F085F94FF40060ADF8D4
:10372000040004208DF8070001A91F4802F07AF96F
:1037300006B010BD10B586B004460121480402F061
:10374000A0FC0021194803F0D0FC02A803F0AAFC59
:10375000029402A9154803F03CFC0121134803F030
:10376000C4FC0420ADF8040003208DF806001820E6
:103770008DF8070001A90E4802F054F90820ADF8B1
:10378000040004208DF8070001A9094802F04AF955
:1037900006B010BD000230000000002018ED00E06F
:1037A00000E400E000480040000C014000440040FC
:1037B0000008014010B50346002004E0141A641EFE
:1037C0000C5D1C54401C9042F8D310BD30B502462D
:1037D0000B464FF0FF3002B103B930BD002108E0C5
:1037E000C4B2555C6C40734D55F8244084EA1020F7
:1037F000491C9942F4D3C04300BFEEE770B50246BE
:103800000C46FF25FF2312B94FF6FF7070BD09E08B
:1038100012F8010B80EA03016748405C80EA050367
:103820006648455C201EA4F10106B4B2F0D143EA1B
:103830000520EBE72DE9F04F03460C4694460022A5
:103840001D680026DFF87891012C57DD601E53F8C3
:103850002020342090FBF4F000F1060846E04E44AE
:10386000C6F3810700211FE0481C53F8205050097F
:1038700080EA85004FEAD50A8AEA021A504486EAAD
:10388000050A01F0030B8BEA070B5CF82BB08BEAFF
:10389000020BDA4480EA0A0053F821A0504443F8AE
:1038A000210053F82120491C601E8842DCDC1D6881
:1038B000500980EA85004FEAD50A8AEA021A824452
:1038C00086EA050001F0030B8BEA070B5CF82BB0CE
:1038D0008BEA020B58448AEA000A601E53F8200063
:1038E0008244601E43F820A053F82020B8F1000065
:1038F000A8F10108B3DC0020BDE8F08FB4F1FF3F70
:1039000056DA6442601E53F82020342090FBF4F015
:1039100000F1060808FB09F646E0C6F38107611EC0
:1039200020E0481E53F82020500980EA85004FEA25
:10393000D50A8AEA021A504486EA050A01F0030B06
:103940008BEA070B5CF82BB08BEA020BDA4480EAB7
:103950000A0053F821A0AAEB000043F8210053F815
:103960002150491E0029DCDC601E53F8202050093C
:1039700080EA85004FEAD50A8AEA021A504486EAAC
:10398000050A01F0030B8BEA070B5CF82BB08BEAFE
:10399000020BDA4480EA0A00D3F800A0AAEB000088
:1039A00018601D68A6EB0906002EB6D10020A3E71B
:1039B0000120A1E7F4990008F49D0008F49E000896
:1039C000B979379E2DE9F04707460C4616469846CA
:1039D0004FF0000917B10CB1002E03DA4FF0FF30A1
:1039E000BDE8F087FCF7F4FB814606EB4600C1001A
:1039F000204605F0EFFD1421384605F0EBFD0025CB
:103A000010E005EB450004EBC000A0F80C8005EBCE
:103A1000450004EBC000183005EB450104EBC10183
:103A200008616D1C701EA842EBDC002005EB45010F
:103A300004EBC10108617E603C604846FCF7CCFBAA
:103A40000020CDE770B50446002600250CB9002003
:103A500070BDFCF7BDFB0646206828B125682869C3
:103A600020600020686128613046FCF7B5FB2846DD
:103A7000EEE72DE9F04106460C46174606B11CB9A3
:103A80004FF0FF30BDE8F0814FF0000817B106F1AC
:103A90000C0001E006F110000546FCF799FB80469A
:103AA000286818B92C606461246109E028682061E5
:103AB0002868406904612868406960612868446139
:103AC0004046FCF789FB0020DCE72DE9F041054684
:103AD0000F464FF00008002615B90020BDE8F08120
:103AE00017B105F10C0001E005F110000446FCF7E8
:103AF0006FFB8046206808B9002618E02668206819
:103B000000692168884202D1002020600CE0206812
:103B1000406921680969486120680069216849692C
:103B200008612068006920600020706130614046B3
:103B3000FCF752FB3046D1E770B504460D4604B1A0
:103B400015B94FF0FF3070BD0026FCF741FB06466B
:103B50002068286125603046FCF73EFB0020F2E734
:103B60002DE9F04104460D461646002704B11DB963
:103B70004FF0FF30BDE8F081FCF72AFB0746182123
:103B8000204605F027FD25607008A060A068284445
:103B900060603846FCF720FB0020EBE72DE9F0479A
:103BA00004460F4615464FF00008C14604B11FB940
:103BB0004FF0FF30BDE8F087FCF70AFB80466169F3
:103BC000A068461AB54202D94FF0FF3929E0E068F3
:103BD0002844A16888420FD9D4E90201461AE26854
:103BE000216888183246394605F053FCAA1BB919DA
:103BF000206805F04EFC06E0E268216888182A4635
:103C0000394605F046FCE0682844E060D4E902103B
:103C1000B0FBF1F201FB1200E060606928446061D2
:103C200000BF4046FCF7D8FA4846C3E72DE9F0410B
:103C300004460D46002714B90020BDE8F0816069F4
:103C400008B90020F9E7FCF7C3FA0746D4E90401F4
:103C50000844A168884211D92169A068461A2369DD
:103C60002268D1183246606805F013FC63699A1B1C
:103C7000D4E90013981905F00CFC06E026692368C6
:103C800099196269606805F004FCD4E904010844EC
:103C90002061A1682069B0FBF1F201FB12002061F4
:103CA0000DB160692860002060613846FCF794FA25
:103CB0006068C2E72DE9F0410646042701F093FB56
:103CC00001F0FDFD04466EB1FE4961EA04050846B7
:103CD000A043884217D001F050FC284601F00DFDAA
:103CE00000F00BFBF7482043C543F649C94344EABB
:103CF0000100401C38B101F040FC15B1284601F02C
:103D0000FCFC00F0FAFA01F07AFBBDE8F0812DE945
:103D1000F74F044690460426DDF804B028F003006F
:103D2000404502D0701FBDE8FE8FA40AA40204EB38
:103D3000080901F058FB08F2FF304FEA902A3520BD
:103D400001F0ECFD002707E04FF4806101FB074024
:103D500001F08EFB06467F1C574501D2042EF3D09E
:103D6000042E00D026E02546002708E038467F1CB8
:103D70005BF82010284601F04BFC06462D1D4D45F2
:103D800001D2042EF2D0042E00D013E025460426E2
:103D9000002708E02A6838467F1C5BF82000824232
:103DA00000D002262D1D4D4501D2042EF2D101F086
:103DB0001AFB00BF042E02D04FF0FF30B3E7002003
:103DC000B1E770B5044634B10C252A46BE492046F9
:103DD00005F0A4FB00BF70BD2DE9F04107460026A9
:103DE000BA4D002415E055F82400401C78B9601C39
:103DF00055F82000401C50B9A01C55F82000401C6C
:103E000028B9E01C55F82000401C00B903E0361D1D
:103E1000641CBE42E7D300BF3146AC48FFF7D6FC76
:103E2000BDE8F0812DE9FF4104460D4616461F46C8
:103E300004B125B94FF0FF3004B0BDE8F08195E83A
:103E400007008DE8070003964FB19DE80F0084E856
:103E50000F006A4604212046FFF7ECFC06E09C4870
:103E600020606A4601212046FFF7E4FC0020E3E7DA
:103E70002DE9F0438BB006460F46154626B94FF0A4
:103E8000FF300BB0BDE8F0834FF00409E84696E838
:103E90000F0001AC0FC417B18E48009009E08C48A8
:103EA00000900020CDE9065001AA022106A8FFF7E4
:103EB000C1FC00200890002405E058F82410089860
:103EC00048400890641C082CF7D301F08CFA342089
:103ED00001F024FD804801F0CBFA8146E846002439
:103EE00010E058F824107C4A02EB840001F090FBAB
:103EF0008146B9F1040F04D001F081FA4FF0FF3090
:103F0000BFE7641C0A2CECD301F079FA0020B8E773
:103F10002DE9F04387B0054688466F4C6F4800682E
:103F2000401CB0B96E48FFF74CFF4FF0FF30FFF771
:103F300053FF6A49086000230846694902686948D6
:103F4000FFF770FF01236548654902686648FFF77F
:103F500069FF6648007800287CD15D492068884266
:103F600003D05C492068884267D1DFF86C91002754
:103F7000002603E059F826004740761C082EF9D3A6
:103F8000206AB84258D152492068884238D15548F1
:103F900000686168884224D1D4E90601CDE90401B2
:103FA000221D6FF0010104A8FFF744FC0020DDE9A9
:103FB0000421D2F10302884103D204204B49087046
:103FC0000EE0484B0FCB8DE80F0004994A1C4FF0D0
:103FD00000016846FFF74CFF01204449087000BF0C
:103FE0002AE0404B0FCBCDE90423CDE902010422A6
:103FF000002102A8FFF73CFF04203C4908701BE0A9
:104000001022211D384805F0F9F918B90320374965
:10401000087011E0334BD3E901211868DB68CDE962
:104020000413CDE902020422002102A8FFF720FFB9
:1040300004202E49087000BF0CE02A4B0FCB02AEC3
:104040000FC60022114602A8FFF712FF01202749E0
:10405000087000BF25480078012831D12448016844
:1040600024480068FFF7C2FA44F62061884227D945
:10407000D4E90601CDE90401201D0FC88DE80F0029
:104080001B4800681B490860221D6FF0010104A84D
:10409000FFF7D0FB0498421C4FF000016846FFF781
:1040A000E7FE0020DDE90421D2F10302884102D2BB
:1040B00004200E49087015B141460220A84700BFF0
:1040C0000A4819E0F8FFFF01E8F7FF1F0030000879
:1040D00067452301EFCDAB89009001081001002056
:1040E0004C0C0020680C0020580C00200801002017
:1040F000FC0000200C0100200078042821D11022AF
:10410000211D844805F07AF928B9032082490870F6
:1041100007B0BDE8F08315B141460420A8477F48A9
:1041200001687F480068FFF761FA44F62061884221
:1041300007D97A4800687A49086015B141460520D8
:10414000A84700BFE4E770B50446042501F04BF929
:1041500000BF342001F0E2FB01F00FFA0546042D08
:1041600000D005E021466F4801F0A3FA054600BFE4
:1041700000BF01F044F9042D01D1002070BD4FF0C3
:10418000FF30FBE767480078704770B586B01421B0
:1041900001A805F01FFA002501AE1422624901A80A
:1041A00005F0BCF9BDF804004AF2A551884200D0E0
:1041B0002BE0002404E036F81400284485B2641C87
:1041C000082CF8D3BDF81400A8421DD1BDF8060094
:1041D00056490880BDF8080055490880BDF80A0016
:1041E00054490880BDF80C0053490880BDF80E0002
:1041F00052490880BDF8100051490880BDF81200EE
:104200005049087006B070BD00BF082047490880BB
:1042100040F236604649088040F6F610454908806D
:104220002820454908804FF47D60444908803020AB
:104230004349088001204349087000BFE2E72DE9A7
:10424000F04186B04FF00408142101A805F0C2F92E
:10425000002501AE344F4AF2A550ADF804003348B2
:104260000088ADF8060032480088ADF808003148F3
:104270000088ADF80A0030480088ADF80C002F48DF
:104280000088ADF80E002E480088ADF810002D48CB
:104290000078ADF81200002404E036F81400284439
:1042A00085B2641C082CF8D3ADF8145001F09BF8CB
:1042B000342001F033FB1C4801F0DAF8804600247A
:1042C00010E036F81410384601F0D5F98046B8F100
:1042D000040F05D001F093F8002006B0BDE8F0818E
:1042E000BF1C641C092CECD301F089F80120F4E711
:1042F000024610880B88C01A70471348006800F403
:10430000E06012490843001D0F490860BFF34F8F5A
:1043100000BFFEE7580C002008010020FC00002030
:104320000C01002004F8FF1F00F000081600002018
:10433000180000201A0000201C0000201E00002091
:10434000200000209E0000200CED00E00000FA0597
:1043500000B587B004A802F0EBFA684602F0F1FA63
:104360000121C80201F080FE8220ADF8140040F265
:104370006710ADF810000020ADF81600ADF812007F
:1043800004A9814801F0A8FF01217F4802F0C6FD81
:104390006020ADF800000120ADF802006420ADF807
:1043A00006000220ADF808006946774801F0D1FF09
:1043B0000121754802F0F8FA07B000BD08B54FF4C6
:1043C0008070ADF8000018208DF8030003208DF8F0
:1043D000020069466D4801F025FB08BD08B54FF4A1
:1043E0008070ADF8000010208DF8030003208DF8D8
:1043F00002006946654801F015FB00224FF4807108
:10440000624801F0C0FB08BD10B5FFF7A1FF10BD69
:104410002DE9F04104465E49A0680968FFF7E6F817
:104420000546A088E17800FB01F6AE4218D260781C
:1044300008B9012000E000206070074637B1012173
:10444000514802F0A5FAFFF7B9FF05E000214E48F8
:1044500002F09EFAFFF7C2FFE078401CE07000BF58
:10446000E078A17888420CDD0020207000214648C9
:1044700002F08EFAFFF7B2FF002046490870464965
:104480000870BDE8F08170B504460D46164601205F
:1044900020706806000EA0700120E070A6803C48E5
:1044A0000068A060012060700121374802F070FAB6
:1044B000FFF784FF70BD37490870704710B5374863
:1044C000007800B334480078012807D0022804D0CF
:1044D000032804D0042807D102E000BF00BF00BFBA
:1044E0002E48FFF795FF0DE00021274802F050FA13
:1044F000FFF774FF002029490870264908702649F3
:10450000087000BF3FE024480078224909788842BB
:1045100039D02048007820490870084600780128E2
:104520000DD0022804D0032810D004281CD114E098
:104530004FF4FA7203211948FFF7A5FF22E04FF468
:104540007A7201211548FFF79EFF1BE04FF4FA72C3
:1045500001211248FFF797FF14E04FF4FA7202218D
:104560000E48FFF790FF0DE00021074802F010FA17
:10457000FFF734FF00200949087006490870064912
:10458000087000BF00BF10BD002C014000080140B2
:10459000FC0000201501002014010020780C0020F0
:1045A00000B587B00121880401F06BFD03A802F07B
:1045B00079FD4FF49650039003A9A94802F009FD34
:1045C0000121A74802F091FD4FF48060ADF808008A
:1045D00003208DF80A0018208DF80B0002A9A148CD
:1045E00001F020FA4FF40060ADF8080004208DF8C7
:1045F0000B0002A99B4801F015FA27208DF8040052
:1046000004208DF8050000208DF8060001208DF8AB
:10461000070001A800F07FFA012240F225519048DE
:1046200002F06FFD0121084601F011FD43F29000F8
:104630008D49C8618A48001D48620020086288626E
:1046400001228021864802F081FD07B000BD38B507
:104650008348048804F0200050B18148001D008880
:10466000C0B20090012269468048FFF797FA00BF68
:1046700038BD10B5032308227D497E48FFF7A2F913
:1046800040227D497948FFF76BFA40227B497C48FC
:10469000FDF724F8FFF784FF10BDF0B585B005469F
:1046A00000BF00270020049004A97048FFF7BEFA5D
:1046B000074607B92BE027E0002600200390029070
:1046C000002402A903ABCDE9001039466C48049AD6
:1046D000FDF716F8064606B917E06648FFF7B2F987
:1046E000044614B9304604F062FE26600398606008
:1046F000012020720298A072012221465D48FFF736
:10470000B8F90020049000BFD6E700BF00BF00BF8B
:1047100000BF00245B480078E0B15348006800F017
:10472000200010B905B148E048E04D48008800F08D
:10473000400010B905B140E040E010204A4948600F
:104740005148007A18B15049086804F030FE002042
:104750004C49087000214748FFF7B7F904465CB39D
:104760006068002801DD206848B9207A20B12068FF
:1047700010B1206804F01BFE05B11EE01EE03A48AF
:10478000C06920F001003849C8616068086220688B
:1047900088620846C06940F00100C86101203949BB
:1047A000087018222146384804F0B8FE21463148E6
:1047B000FFF7C2F905B100E000E0AAE700BF00BFC3
:1047C000002401212B48FFF780F9044614B120464C
:1047D00005B0F0BD00BF0020FAE710B5044644B1B3
:1047E000207A10B1206804F0E2FD21462148FFF74D
:1047F000A3F910BD10B504461CB121461D48FFF7B2
:104800009BF910BD402070472DE9F04105460E464A
:1048100090461F46002415B9601EBDE8F08115487A
:10482000FFF710F9044614B94FF0FF30F5E72560A3
:1048300067602672002221460E48FFF71AF9002011
:10484000EBE710B5044604B910BD0020A0810C2090
:1048500060812146024802F0BCFB00BFF4E7000083
:1048600000480040000C014000000240980D00206C
:10487000840C0020440D0020580D0020B00D0020B5
:10488000F00D002016010020080E002010B50223B4
:10489000102296499648FFF795F840229549964888
:1048A000FFF75EF9002003F033F99448046800BF75
:1048B000924801682046FEF799FE6428F8D301204B
:1048C00003F026F903F0C7F803F082F803F012FFB3
:1048D00010BD70B504460D462A4621468648FFF7AE
:1048E0005DF970BD86480068052801D10120704738
:1048F0000020FCE72DE9F04105460E4690461F4694
:104900000024FFF7EFFF10B9601EBDE8F08115B974
:104910004FF0FF30F9E77648FFF794F8044614B9F2
:104920004FF0FF30F1E725606760267200222146D4
:104930006F48FFF79EF80020E7E770B505460C4684
:10494000FFF7D0FF00B970BDADB1A4B1204604F0AF
:10495000FFFC064676B122462946304604F099FD12
:104960002346032201213046FFF7C4FF10B1304631
:1049700004F01DFD00BF00BFE5E7F8B5054600BF28
:1049800000270020009069465B48FFF74FF9074673
:1049900007B92CE026E000240A2004F0D9FC0646E2
:1049A00006B922E05248FFF74DF804461CB93046DC
:1049B00004F0FDFC19E03868306078687060388970
:1049C000308126600A206060012020720720A072DA
:1049D000012221464648FFF74CF800980A3800901B
:1049E0000A3700BF00980A28D5DA00BF00BF00BF11
:1049F00000BF002443480078A8B14148006805285A
:104A000007D1012004F008F9202802D005B146E0C2
:104A100046E03D48007A18B13B49086804F0C7FCFD
:104A200000203849087000213148FFF74EF804464D
:104A30009CB36068002801DD206848B9207A20B165
:104A4000206810B1206804F0B2FC05B127E027E02F
:104A50002B48006805280AD0207A10B1206804F09D
:104A6000A6FC21462248FFF767F8B5B117E0812080
:104A7000D4E9001204F03AFC012004F0DFF8012030
:104A800020490870182221461F4804F047FD21469E
:104A90001748FFF751F805B101E0FFE700E0A8E78C
:104AA00000BF00BF002401211148FFF70EF80446A3
:104AB0000CB12046F8BD00BF0020FBE710B504464E
:104AC00044B1207A10B1206804F071FC21460848F6
:104AD000FFF732F810BD10B504461CB1214604485A
:104AE000FFF72AF810BD002070470000200E0020BC
:104AF000A00F0020B40F0020F40F0020FC000020C5
:104B000034020020170100200C100020314901431D
:104B1000314A1160704770B5002100230F22C4781C
:104B200004B32D4C246804F4E064C4F5E064210A65
:104B3000C1F10403CA40447804FA03F184781440B4
:104B400021430901254C0678A155047804F01F057E
:104B50000124AC4005786D11AD0005F1E025C5F8E4
:104B6000004109E0047804F01F050124AC401C4D0D
:104B70000678761145F8264070BD1A4A0A4002436D
:104B8000154B1B1F1A60704739B1134A121D12686A
:104B90000243114B1B1D1A6006E00F4A121D1268DA
:104BA00082430D4B1B1D1A607047042808D14FF03B
:104BB000E021096941F004014FF0E022116107E0B2
:104BC0004FF0E021096921F004014FF0E02211616A
:104BD000704700000000FA050CED00E000E400E082
:104BE00080E100E080FFFF1F10B50446FA488442D0
:104BF00008D10121401501F051FA0021601501F0A2
:104C00004DFA17E0F548844208D10121001501F062
:104C100045FA0021201501F041FA0BE0F0488442EA
:104C200008D10121C80301F039FA00214FF40040F6
:104C300001F034FA10BD30B5024600200023506860
:104C4000E84C20400D790C6844EA0524204350606C
:104C50009068E54C2040D1E902542C434D7944EA58
:104C6000450420439060D06A20F470000C7C641EE0
:104C7000E4B2234340EA0350D06230BD002101601A
:104C8000017141718160C16001210174704721B1DE
:104C9000826842F00102826003E0826822F0010231
:104CA0008260704721B1826842F48072826003E0C2
:104CB000826822F480728260704710B50023CBB204
:104CC0001AB144681C43446002E044689C43446059
:104CD00010BD816841F008018160704701460020E5
:104CE0008A6802F008020AB1012000E00020704743
:104CF000816841F0040181607047014600208A68A4
:104D000002F004020AB1012000E00020704721B146
:104D1000826842F4A002826003E0826822F4A0026A
:104D200082607047014600208A6802F480020AB15E
:104D3000012000E00020704710B50A460021002342
:104D4000416821F46041531E41EA4331416010BD86
:104D500021B1426842F40062426003E0426822F4FA
:104D6000006242607047F0B504460D460020002105
:104D7000092D11DDE068A5F10A0606EB46070726B6
:104D800006FA07F18843A5F10A0606EB460603FA80
:104D900006F10843E0600CE0206905EB45070726B3
:104DA00006FA07F1884305EB450603FA06F10843C6
:104DB0002061072A0FDA606B561E06EB86071F2656
:104DC00006FA07F18843561E06EB860605FA06F139
:104DD0000843606322E00D2A0FDA206BD61F06EB32
:104DE00086071F2606FA07F18843D61F06EB8606BC
:104DF00005FA06F10843206310E0E06AA2F10D060F
:104E000006EB86071F2606FA07F18843A2F10D0676
:104E100006EB860605FA06F10843E062F0BD21B113
:104E2000826842F48012826003E0826822F4801279
:104E3000826070470146C86C80B2704766484C304B
:104E40000068704721B1426842F48062426003E02A
:104E5000426822F480624260704721B1426842F4A5
:104E60008052426003E0426822F480524260704700
:104E70000A460021816821F4E041114381607047B6
:104E800021B1826842F40042826003E0826822F429
:104E900000428260704721B1826842F4021282604F
:104EA00003E0826822F4021282607047014600200B
:104EB0008A6802F400120AB1012000E00020704765
:104EC000F0B504461546002000220026092911DD10
:104ED000E068A1F10A0707EB470C072707FA0CF275
:104EE0009043A1F10A0707EB470703FA07F21043C3
:104EF000E0600CE0206901EB410C072707FA0CF297
:104F0000904301EB410703FA07F210432061A06BC5
:104F1000C0F30156EF1C06F1010CA7EB0C0707EBE1
:104F2000870C1F2707FA0CF29043EF1C06F1010CC7
:104F3000A7EB0C0707EB870701FA07F21043A06302
:104F4000F0BD10B50A4600210023816B21F4401109
:104F5000531E41EA0351816310BD08B5002300933D
:104F60000090009B0B440093009B1A6008BD08B59D
:104F7000024600200090009201F12800009B184496
:104F800000900098006880B208BD0A460021416880
:104F9000164B19401143416070474162826270476D
:104FA0000A460021416821F01F011143416070470A
:104FB00040B109490831096841F40001064A083244
:104FC000116007E004490831096821F40001024A30
:104FD00008321160704700000024014000280140A1
:104FE000003C0140FFFEF0FFFDF7F1FFFFFD3FFF3A
:104FF0000246002013680B400BB1012000E00020A6
:105000007047CA430260704770B502460020002313
:1050100000240B125568CEB205EA060415681D403F
:1050200015B10CB1012000E0002070BD00220A1271
:10503000D34303607047000001684FF6FE721140D1
:1050400001600021016041608160C1608D4988423A
:1050500008D18C490839496841F00F01894A083A5A
:1050600051608AE087491431884208D1854908395E
:10507000496841F0F001834A083A51607DE0814976
:105080002831884208D17F490839496841F4706164
:105090007C4A083A516070E07A493C31884208D134
:1050A00078490839496841F47041764A083A5160B4
:1050B00063E074495031884208D17249083949681F
:1050C00041F470216F4A083A516056E06D496431ED
:1050D000884208D16B490839496841F47001694A2E
:1050E000083A516049E067497831884208D16549FA
:1050F0000839496841F07061624A083A51603CE001
:105100006149884206D1011F096841F00F01021F61
:10511000116032E05C491431884208D15A49091FB4
:10512000096841F0F001584A121F116025E0564904
:105130002831884208D15449091F096841F4706137
:10514000514A121F116018E04F493C31884208D182
:105150004D49091F096841F470414B4A121F116003
:105160000BE049495031884207D14749091F096876
:1051700041F47021444A121F1160704710B500229B
:10518000026847F6F0739A430C6A8B6823430C69F4
:1051900023434C6923438C692343CC6923434C6AE2
:1051A00023438C6A23431A430260CB6843600B6835
:1051B00083604B68C36010BD002101604160816065
:1051C000C160016141618161C161016241628162CD
:1051D000704721B1026842F00102026004E00268F7
:1051E0004FF6FE731A40026070471AB103680B4312
:1051F000036002E003688B430360704741607047BF
:105200000146486880B2704701460020002201F044
:1052100080531BB11C4B083B1A6802E0194B083B3A
:105220001A6802EA01030BB1012000E00020704778
:1052300000F0805119B11449091F086002E01149BA
:1052400008394860704701460020002201F0805371
:105250001BB10D4B083B1A6802E00A4B083B1A6869
:1052600002EA01030BB1012000E00020704700F0CA
:10527000805119B10449091F086002E00149083949
:10528000486070470800024008040240002044497A
:105290000860091D0860091D0860091D0860414873
:1052A0003F4914310860704700213D498279002A46
:1052B0003AD00A46126803689A430B461A600A1DE0
:1052C000126803689A430B1D1A60027911440A6838
:1052D00003681A430A60324A0832126803689A4324
:1052E0002F4B08331A601A1D126803689A432C4B1F
:1052F0000C331A604279102A0ED11A1F1268036803
:105300001A43274B08331A601A1D126803681A43A0
:10531000234B0C331A600DE02149427911440A688D
:1053200003681A430A6005E0027911440A680368B9
:105330009A430A6070470021016001710C2141719C
:105340000021817170471649103109680143144AE0
:1053500010321160704701460020114A1432126861
:105360000A400AB1012000E0002070470C491431C6
:1053700008607047014600200022094B1B6803EAC1
:105380000102074B14331B680B4013B10AB1012013
:1053900000E00020704702491431086070470000A7
:1053A00000040140FFFF0F0001460020FE4A106884
:1053B00000F03800084310607047FB49096821F08D
:1053C0000801F94A116011460968014311607047EC
:1053D000F549096821F01001F34A11601146096886
:1053E000014311607047F148EF494860F048486058
:1053F0007047EE48EC494860ED4848607047EA481D
:10540000006940F08000E84908617047E64800699B
:1054100040F08000E449086170470420E249C9680F
:1054200001F0010109B101200EE0DF49C96801F076
:10543000040109B1022007E0DB49C96801F010014D
:1054400009B1032000E00420704700B502460423A0
:10545000FFF7E3FF034603E0FFF7DFFF0346521EBB
:10546000012B01D1002AF7D102B90523184600BD4E
:1054700030B5044604254FF43020FFF7E6FF05461B
:10548000042D17D1C848006940F00200C6490861E0
:1054900008464461006940F0400008614FF4302044
:1054A000FFF7D3FF0546C048006941F6FD7108408B
:1054B000BD490861284630BD10B504244FF43020A2
:1054C000FFF7C3FF0446042C16D1B748006940F02B
:1054D0000400B54908610846006940F040000861D1
:1054E0004FF43020FFF7B1FF0446AF48006941F6A2
:1054F000FB710840AC490861204610BD00B502466A
:105500000423FFF78AFF034603E0FFF786FF034605
:10551000521E012B01D1002AF7D102B905231846EA
:1055200000BD10B504244FF43020FFF7E7FF044618
:10553000042C16D19C48006940F004009A49086187
:105540000846006940F0400008614FF43020FFF742
:10555000D5FF04469448006941F6FB710840924922
:105560000861204610BD00208F49C96901F0020181
:1055700009B1012000E00020704730B5A5250424C2
:10558000FFF7F1FF00B100254FF43020FFF75DFF7A
:105590000446042C3AD18548834988608448886051
:1055A0000846006940F0200008610846006940F0A4
:1055B000400008614FF43020FFF747FF0446042CF9
:1055C0001BD17948006941F6DF71084076490861CE
:1055D0000846006940F01000086176480580E00246
:1055E000FFF733FF0446052C10D06F48006941F6E1
:1055F000EF7108406C49086108E0052C06D06A4844
:10560000006941F6EF71084067490861204630BDE6
:1056100078B506460C46042500200090E802FFF706
:1056200014FF0546042D24D15F48006940F00100B5
:105630005D4908613480E802FFF707FF0546042D45
:1056400010D1B01C0090200C00990880E802FFF7F0
:10565000FCFE05465448006941F6FE710840524977
:10566000086106E05048006941F6FE7108404E4965
:105670000861284678BD70B504460D460426F00240
:10568000FFF7E3FE0646042E11D14748006940F0BB
:105690000100454908612580F002FFF7D6FE064665
:1056A0004148006941F6FE7108403F4908613046B3
:1056B00070BD70B505460E460424E002FFF7C5FE36
:1056C0000446042C17D13948374988603848886027
:1056D0000846006940F0100008612E80E002FFF7E4
:1056E000B4FE0446052C06D02F48006941F6EF7140
:1056F00008402D490861204670BD2DE9F04304465D
:105700004FF6FF763746B046B1460425E443E6B28D
:10571000C4F30727C4F307484FEA1469E802FFF708
:1057200094FE0546042D49D120481F498860204831
:1057300088600846006940F010000861FF2E06D01E
:105740001C4808300680E802FFF77FFE0546042D5E
:1057500008D1FF2F06D017480A300780E802FFF76C
:1057600074FE0546042D0AD1B8F1FF0F07D0114889
:105770000C30A0F80080E802FFF767FE0546042D14
:105780000AD1B9F1FF0F07D00A480E30A0F80090F7
:10579000E802FFF75AFE0546052D0FD002480069C2
:1057A00041F6EF71084007E0002002402301674501
:1057B000AB89EFCD00F8FF1F664908612846BDE8B8
:1057C000F08330B5054604244FF43020FFF73DFE4A
:1057D0000446042C41D160485E4988605F48886077
:1057E0000846006940F0200008610846006940F062
:1057F000400008614FF43020FFF727FE0446042CD8
:1058000022D15448006941F6DF71084051490861CE
:105810000846006940F0100008611DB100205049A1
:10582000088002E0A5204E4908804FF43020FFF7A1
:105830000CFE0446052C10D04648006941F6EF7175
:1058400008404449086108E0052C06D04148006939
:1058500041F6DF7108403F490861204630BDF0B590
:1058600005460E46174604243B483A4988603B48A3
:105870008860E002FFF7E9FD0446042C19D13548A1
:10588000006940F010003349086147F0F8003043E8
:1058900028433349891C0880E002FFF7D6FD0446FF
:1058A000052C06D02B48006941F6EF7108402949C4
:1058B00008612046F0BD2748C06980087047254828
:1058C000006A704700202349096801F0200109B1EE
:1058D000012000E00020704729B11E4A12690243EE
:1058E0001C4B1A6104E01B4A12698243194B1A616E
:1058F000704701460020012908D1164AD26902F0FA
:1059000001020AB1012008E0002006E0114AD26835
:105910000A400AB1012000E0002070470D49C8602C
:10592000704704200B49C96801F0010109B1012049
:105930000EE00849C96801F0040109B1022007E03E
:105940000449C96801F0100109B1032000E00420F6
:10595000704700000020024023016745AB89EFCD6E
:1059600000F8FF1F10B50446CC48844208D101213D
:10597000042000F093FB0021042000F08FFB46E0A0
:10598000C748844208D10121082000F087FB00218C
:10599000082000F083FB3AE0C248844208D101218C
:1059A000102000F07BFB0021102000F077FB2EE0A0
:1059B000BD48844208D10121202000F06FFB002166
:1059C000202000F06BFB22E0B848844208D101217E
:1059D000402000F063FB0021402000F05FFB16E058
:1059E000B348844208D10121802000F057FB0021F8
:1059F000802000F053FB0AE0AE48844207D1012129
:105A0000801500F04BFB0021A01500F047FB10BDF6
:105A100010B50121084600F041FB0021012000F0F3
:105A20003DFB10BD2DE9F041024600250026002077
:105A300000230024002791F803C00CF00F0591F813
:105A400003C00CF0100CBCF1000F03D091F802C0A1
:105A50004CEA050591F800C0BCF1000F31D0146884
:105A600000202BE04FF0010C0CFA00F3B1F800C05D
:105A70000CEA03069E4220D183004FF00F0C0CFA73
:105A800003F7BC4305FA03FC4CEA040491F803C095
:105A9000BCF1280F06D14FF0010C0CFA00FCC2F843
:105AA00014C00AE091F803C0BCF1480F05D14FF0D3
:105AB000010C0CFA00FCC2F810C0401C0828D1D31D
:105AC0001460B1F800C0BCF1FF0F34DD5468002051
:105AD0002EE000F1080C4FF0010808FA0CF3B1F8C1
